:020000040800F2
:1000000000000120E92E0008812900088929000844
:100010009129000899290008A12900080000000082
:10002000000000000000000000000000A9290008F6
:10003000B729000800000000C5290008D3290008DE
:10004000392F0008392F0008392F0008392F0008F0
:10005000392F0008392F0008392F0008392F0008E0
:10006000392F0008392F0008392F0008392F0008D0
:10007000392F0008392F0008392F0008392F0008C0
:10008000392F0008392F0008392F00080000000020
:10009000000000000000000000000000392F0008F0
:1000A000392F0008392F0008392F0008392F000890
:1000B000392F0008392F0008392F0008392F000880
:1000C000392F0008392F0008392F0008392F000870
:1000D000392F0008E1290008F52900080000000078
:1000E000392F0008392F0008392F000800000000C0
:1000F000000000000000000000000000392F000890
:1001000000000000392F0008392F0008392F00089F
:1001100000000000000000000000000000000000DF
:10012000392F0008392F0008392F0008392F00080F
:10013000392F00080000000000000000000000004F
:10014000000000000000000000000000392F00083F
:10015000392F0008392F0008392F0008092A000814
:10016000392F0008392F00080000000000000000AF
:10017000000000000000000000000000000000007F
:1001800000000000392F00080000000000000000FF
:04019000392F0008FB
:1001A00010B5054C237833B9044B13B10448AFF3B1
:1001B00000800123237010BD080200200000000011
:1001C000EC87000808B5034B1BB103490348AFF3A4
:1001D000008008BD000000000C020020EC87000831
:1001E00001F0FF01102A2BDB10F0070F08D010F8E8
:1001F000013B013A8B422DD010F0070F42B3F6D1EC
:10020000F0B441EA012141EA014122F007047FF004
:1002100000070023F0E80256083C85EA010586EA5B
:10022000010685FA47F5A3FA87F586FA47F6A5FA97
:1002300087F68EB9EED1F0BC01F0FF0102F00702A3
:1002400032B110F8013B013A83EA010313B1F8D14E
:100250000020704701387047002D06BF354603382F
:10026000073815F0010F07D1013015F4807F02BF68
:10027000013015F4C03F0130F0BC0138704700BFB9
:10028000034613F8012B002AFBD1181A01387047D6
:1002900081F0004102E000BF83F0004330B54FEA37
:1002A00041044FEA430594EA050F08BF90EA020FA4
:1002B0001FBF54EA000C55EA020C7FEA645C7FEA37
:1002C000655C00F0E2804FEA5454D4EB5555B8BF5A
:1002D0006D420CDD2C4480EA020281EA030382EACB
:1002E000000083EA010180EA020281EA0303362D5D
:1002F00088BF30BD11F0004F4FEA01314FF4801C30
:100300004CEA113102D0404261EB410113F0004F41
:100310004FEA03334CEA133302D0524263EB4303F8
:1003200094EA050F00F0A780A4F10104D5F1200E96
:100330000DDB02FA0EFC22FA05F2801841F10001F1
:1003400003FA0EF2801843FA05F359410EE0A5F1C5
:1003500020050EF1200E012A03FA0EFC28BF4CF0F6
:10036000020C43FA05F3C01851EBE37101F00045AC
:1003700007D54FF0000EDCF1000C7EEB00006EEBB9
:100380000101B1F5801F1BD3B1F5001F0CD3490843
:100390005FEA30004FEA3C0C04F101044FEA44529A
:1003A00012F5800F80F09A80BCF1004F08BF5FEA21
:1003B000500C50F1000041EB045141EA050130BD01
:1003C0005FEA4C0C404141EB0101013C28BFB1F513
:1003D000801FE9D291F0000F04BF01460020B1FA5E
:1003E00081F308BF2033A3F10B03B3F120020CDA31
:1003F0000C3208DD02F1140CC2F10C0201FA0CF00F
:1004000021FA02F10CE002F11402D8BFC2F1200C73
:1004100001FA02F120FA0CFCDCBF41EA0C01904029
:10042000E41AA2BF01EB0451294330BD6FEA040472
:100430001F3C1CDA0C340EDC04F11404C4F120025D
:1004400020FA04F001FA02F340EA030021FA04F36F
:1004500045EA030130BDC4F10C04C4F1200220FAC6
:1004600002F001FA04F340EA0300294630BD21FA04
:1004700004F0294630BD94F0000F83F4801306BFCA
:1004800081F480110134013D4EE77FEA645C18BFBE
:100490007FEA655C29D094EA050F08BF90EA020F55
:1004A00005D054EA000C04BF1946104630BD91EA4D
:1004B000030F1EBF0021002030BD5FEA545C05D150
:1004C0004000494128BF41F0004130BD14F580048F
:1004D0003CBF01F5801130BD01F0004545F0FE4103
:1004E00041F470014FF0000030BD7FEA645C1ABF38
:1004F000194610467FEA655C1CBF0B46024650EA6F
:10050000013406BF52EA033591EA030F41F400219A
:1005100030BD00BF90F0000F04BF0021704730B520
:100520004FF4806404F132044FF000054FF00001F5
:1005300050E700BF90F0000F04BF0021704730B5B6
:100540004FF4806404F1320410F0004548BF40428B
:100550004FF000013EE700BF42004FEAE2014FEAE0
:1005600031014FEA02701FBF12F07F4393F07F4FBB
:1005700081F06051704732F07F4208BF704793F0BE
:100580007F4F04BF41F40021704730B54FF46074D1
:1005900001F0004521F000411CE700BF50EA0102D4
:1005A00008BF704730B54FF000050AE050EA01027D
:1005B00008BF704730B511F0004502D5404261EBED
:1005C00041014FF4806404F132045FEA915C3FF42E
:1005D000D8AE4FF003025FEADC0C18BF03325FEACB
:1005E000DC0C18BF033202EBDC02C2F1200300FA7C
:1005F00003FC20FA02F001FA03FE40EA0E0021FAA1
:1006000002F11444BDE600BF70B54FF0FF0C4CF48E
:10061000E06C1CEA11541DBF1CEA135594EA0C0F40
:1006200095EA0C0F00F0DEF82C4481EA030621EA7B
:100630004C5123EA4C5350EA013518BF52EA0335B6
:1006400041F4801143F4801338D0A0FB02CE4FF068
:100650000005E1FB02E506F00042E0FB03E54FF098
:100660000006E1FB03569CF0000F18BF4EF0010E90
:10067000A4F1FF04B6F5007F64F5407404D25FEA8C
:100680004E0E6D4146EB060642EAC62141EA55513F
:100690004FEAC52040EA5E504FEACE2EB4F1FD0C81
:1006A00088BFBCF5E06F1ED8BEF1004F08BF5FEAFF
:1006B000500E50F1000041EB045170BD06F00046B1
:1006C00046EA010140EA020081EA0301B4EB5C045E
:1006D000C2BFD4EB0C0541EA045170BD41F4801156
:1006E0004FF0000E013C00F3AB8014F1360FDEBF7B
:1006F000002001F0004170BDC4F10004203C35DA57
:100700000C341BDC04F11404C4F1200500FA05F3D9
:1007100020FA04F001FA05F240EA020001F000427A
:1007200021F0004110EBD37021FA04F642EB0601F0
:100730005EEA430E08BF20EAD37070BDC4F10C041A
:10074000C4F1200500FA04F320FA05F001FA04F2DE
:1007500040EA020001F0004110EBD37041F10001CA
:100760005EEA430E08BF20EAD37070BDC4F12005D5
:1007700000FA05F24EEA020E20FA04F301FA05F23D
:1007800043EA020321FA04F001F0004121FA04F2E5
:1007900020EA020000EBD3705EEA430E08BF20EAB5
:1007A000D37070BD94F0000F0FD101F000464000EF
:1007B00041EB010111F4801F08BF013CF7D041EA71
:1007C000060195F0000F18BF704703F00046520075
:1007D00043EB030313F4801F08BF013DF7D043EA46
:1007E0000603704794EA0C0F0CEA135518BF95EAFC
:1007F0000C0F0CD050EA410618BF52EA4306D1D183
:1008000081EA030101F000414FF0000070BD50EAA1
:10081000410606BF1046194652EA430619D094EA2B
:100820000C0F02D150EA013613D195EA0C0F05D115
:1008300052EA03361CBF104619460AD181EA030169
:1008400001F0004141F0FE4141F470014FF0000021
:1008500070BD41F0FE4141F4780170BD70B54FF0BC
:10086000FF0C4CF4E06C1CEA11541DBF1CEA13553C
:1008700094EA0C0F95EA0C0F00F0A7F8A4EB05041E
:1008800081EA030E52EA03354FEA013100F0888015
:100890004FEA03334FF0805545EA131343EA1263DE
:1008A0004FEA022245EA111545EA10654FEA002693
:1008B0000EF000419D4208BF964244F1FD0404F54C
:1008C000407402D25B084FEA3202B61A65EB0305A8
:1008D0005B084FEA32024FF480104FF4002CB6EB65
:1008E000020E75EB030E22BFB61A754640EA0C00E5
:1008F0005B084FEA3202B6EB020E75EB030E22BF25
:10090000B61A754640EA5C005B084FEA3202B6EB65
:10091000020E75EB030E22BFB61A754640EA9C0024
:100920005B084FEA3202B6EB020E75EB030E22BFF4
:10093000B61A754640EADC0055EA060E18D04FEAB2
:10094000051545EA16754FEA06164FEAC30343EA52
:1009500052734FEAC2025FEA1C1CC0D111F4801F1F
:100960000BD141EA00014FF000004FF0004CB6E718
:1009700011F4801F04BF01430020B4F1FD0C88BFB7
:10098000BCF5E06F3FF6AFAEB5EB030C04BFB6EBC2
:10099000020C5FEA500C50F1000041EB045170BDB5
:1009A0000EF0004E4EEA113114EB5C04C2BFD4EBE2
:1009B0000C0541EA045170BD41F480114FF0000E66
:1009C000013C90E645EA060E8DE60CEA135594EAE2
:1009D0000C0F08BF95EA0C0F3FF43BAF94EA0C0FE5
:1009E0000AD150EA01347FF434AF95EA0C0F7FF45A
:1009F00025AF104619462CE795EA0C0F06D152EAAE
:100A000003353FF4FDAE1046194622E750EA410691
:100A100018BF52EA43067FF4C5AE50EA41047FF4A2
:100A20000DAF52EA43057FF4EBAE12E74FF0FF3C07
:100A300006E000BF4FF0010C02E000BF4FF0010CD8
:100A40004DF804CD4FEA410C7FEA6C5C4FEA430C51
:100A500018BF7FEA6C5C1BD001B050EA410C0CBFA0
:100A600052EA430C91EA030F02BF90EA020F002002
:100A7000704710F1000F91EA030F58BF994208BF69
:100A800090422CBFD8176FEAE37040F00100704726
:100A90004FEA410C7FEA6C5C02D150EA013C07D17D
:100AA0004FEA430C7FEA6C5CD6D152EA033CD3D0C8
:100AB0005DF8040B704700BF8446104662468C46C2
:100AC0001946634600E000BF01B5FFF7B7FF0028F5
:100AD00048BF10F1000F01BD4DF808EDFFF7F4FF1E
:100AE0000CBF012000205DF808FB00BF4DF808EDA9
:100AF000FFF7EAFF34BF012000205DF808FB00BFCC
:100B00004DF808EDFFF7E0FF94BF012000205DF8ED
:100B100008FB00BF4DF808EDFFF7CEFF94BF0120A2
:100B200000205DF808FB00BF4DF808EDFFF7C4FF9B
:100B300034BF012000205DF808FB00BF4FEA410CE4
:100B40007FEA6C5C02D150EA013C0AD14FEA430CC7
:100B50007FEA6C5C02D152EA033C02D14FF0000004
:100B600070474FF0010070474FEA410212F5001242
:100B700015D211D56FF47873B3EB625212D94FEAE4
:100B8000C12343F0004343EA505311F0004F23FACE
:100B900002F018BF404270474FF00000704750EA23
:100BA000013005D111F0004008BF6FF000407047E0
:100BB0004FF00000704700BF53B94AB9002908BF81
:100BC00000281CBF4FF0FF314FF0FF3000F06AB932
:100BD000ADF1080C6DE904CE00F006F8DDF804E094
:100BE000DDE9022304B070472DE9F047089D0C466B
:100BF000002B4ED194468C458646B2FA82F262D9D9
:100C00004AB1C2F12003914020FA03F30CFA02FC2E
:100C1000194300FA02FE4FEA1C471FFA8CF6B1FB9B
:100C2000F7F44FEA1E4307FB141143EA014304FBA8
:100C300006F199420AD91CEB030304F1FF3080F05E
:100C40001281994240F20F81023C6344591A1FFA03
:100C50008EF3B1FBF7F007FB101143EA014300FBF1
:100C600006F69E420AD91CEB030300F1FF3180F027
:100C7000FC809E4240F2F980634402389B1B40EAAC
:100C8000044000211DB1D3400022C5E90032BDE877
:100C9000F0878B4205D90DB1C5E900010021084656
:100CA000F5E7B3FA83F1002946D1A34202D390427B
:100CB000C0F0F080861A64EB03030120002DE6D01B
:100CC000C5E90063E3E7002A40F09080A1EB0C0443
:100CD0004FEA1C481FFA8CF70121B4FBF8F64FEAE3
:100CE0001E4308FB164443EA044307FB06F0984200
:100CF00008D91CEB030306F1FF3402D2984200F23C
:100D0000CD8026461C1A1FFA8EF3B4FBF8F008FBC0
:100D1000104443EA044300FB07F79F4208D91CEB49
:100D2000030300F1FF3402D29F4200F2B08020465C
:100D3000DB1B40EA0640A5E7C1F120068B4022FA02
:100D400006F71F4320FA06FC04FA01F343EA0C03FA
:100D5000F44000FA01F8380C4FEA1349B4FBF0FEF6
:100D60001FFA87FC00FB1E4449EA04440EFB0CF901
:100D7000A14502FA01F20AD93C190EF1FF3A80F0BE
:100D80008480A14540F28180AEF1020E3C44A4EB88
:100D900009041FFA83F9B4FBF0F300FB134449EA9A
:100DA000044403FB0CFCA44507D93C1903F1FF30B4
:100DB00067D2A44565D9023B3C4443EA0E40A0FB00
:100DC0000293A4EB0C049C42CE469C4651D34ED0D9
:100DD00055B1B8EB0E0364EB0C0404FA06F6CB40F5
:100DE0001E43CC40C5E90064002150E7C2F1200356
:100DF00020FA03F10CFA02FC24FA03F394400C43AA
:100E00004FEA1C4800FA02FE1FFA8CF7B3FBF8F019
:100E100008FB1031230C43EA014300FB07F1994220
:100E200008D91CEB030300F1FF362CD299422AD9D2
:100E3000023863445B1AA4B2B3FBF8F108FB113328
:100E400044EA034401FB07F3A34208D91CEB040462
:100E500001F1FF3613D2A34211D902396444E41AD6
:100E600041EA004139E70446F0E6084606E7C8458E
:100E7000AED2B9EB020E63EB070C0138A8E731469E
:100E8000EDE7034699E73046D4E7D6467FE763446B
:100E900002384DE70646234608460FE7023E634404
:100EA00030E700BF704700BF80B582B000AF786008
:100EB00039607B683968184601F0EDF87B681846A0
:100EC0000837BD4680BD000080B59CB000AF78609B
:100ED0000B467B8013463B80002387F86F305A23F4
:100EE0003B72A5237B720523BB728223FB72104ADF
:100EF0007B8813800E4B5B783B730D4B1B787B73A9
:100F00000B4A3B8813800A4B5B78BB73084B1B78FA
:100F1000FB73786807F108014FF47A73082201F037
:100F2000C9F897F86F3018467037BD4680BD00BFCE
:100F30002402002080B5A0B002AFF8607B600B46B1
:100F40007B8113463B81002387F87730002387F8A5
:100F500076305A233B74A5237B748223FB74344A76
:100F60007B891380324B5B783B75314B1B787B75EB
:100F7000032387F8763007F1100297F87630009354
:100F800006237968F86800F0DDF8034687F87630C4
:100F900097F87630BB74F86897F876309BB20333D5
:100FA0009AB207F110014FF47A7301F083F84FF40D
:100FB000FA7002F035F807F1100364220021184698
:100FC00005F0B1FA5A233B74A5237B748223FB748A
:100FD000174A3B891380164B5B783B75144B1B7883
:100FE0007B75032387F8763007F1100297F8763087
:100FF00000930623D7F88010F86800F0A3F80346A2
:1010000087F8763097F87630BB74F86897F87630C2
:101010009BB203339AB207F110014FF47A7301F0D7
:1010200049F897F8773018467837BD4680BD00BF3D
:101030002402002080B5A0B002AFF8600B467A60B1
:101040007B81002387F87730002387F876305A2396
:101050003B74A5237B748223FB74174A7B8913801E
:10106000154B5B783B75144B1B787B75032387F816
:10107000763007F1100297F87630009306237968EE
:10108000F86800F05FF8034687F8763097F8763016
:10109000BB74F86897F876309BB203339AB207F1C5
:1010A00010014FF47A7301F005F897F8773018467D
:1010B0007837BD4680BD00BF2402002080B5A0B0B7
:1010C00002AFF8600B467A607B81002387F87730A7
:1010D000002387F876305A233B74A5237B74822340
:1010E000FB74174A7B891380154B5B783B75144B57
:1010F0001B787B75032387F8763007F1100297F889
:101100007630009306237968F86800F01BF80346F0
:1011100087F8763097F87630BB74F86897F87630B1
:101120009BB203339AB207F110014FF47A7300F0C7
:10113000C1FF97F8773018467837BD4680BD00BFAD
:101140002402002080B586B000AFF860B9607A60F4
:10115000FB70B868FFF794F8386100237B6118E0F2
:10116000BA687B6913441B78002B17D0BA687B6977
:101170001A44FB7879680B4412781A7097F820307B
:10118000013387F82030FB780133FB707B69013332
:101190007B617A693B699A42E2D300E000BF97F82D
:1011A000203018461837BD4680BD000080B582B09B
:1011B00000AF786039607B6818464FF480531A4658
:1011C000002105F0B0F97B6803F5805318464FF411
:1011D00080531A46002105F0A6F97B6803F5805379
:1011E0007A6802F5005213607B687A6802F5005253
:1011F00053607B6803F5005320333968184600F0CC
:101200004AFF7B6803F500532433184600F092FF31
:10121000114B1B781946114A3B6842F831300E4B8E
:101220001B780E4ADB0013447A685A600A4B1B781D
:101230000133DAB2084B1A70074B1B78032B02D923
:10124000054B00221A700649064800F0A9FD7B688C
:1012500018460837BD4680BD400200202802002005
:10126000411D0008DD1C000880B586B002AF786023
:101270000023FB73012301930A2300934FF47A7335
:1012800004228649786800F091FB41F288320021FF
:10129000786800F047FC0346FB73012301930A239F
:1012A00000934FF47A7304227C49786800F07EFB47
:1012B00041F288320021786800F034FC0346FB7369
:1012C000012301930A2300934FF47A730422734994
:1012D000786800F06BFB41F288320021786800F0FA
:1012E00021FC0346FB73012301930A2300934FF46F
:1012F0007A730B226A49786800F058FB41F2883211
:101300000021786800F00EFC0346FB7347F2305072
:1013100001F086FE012301930A2300934FF47A73B0
:1013200004225E49786800F041FB41F288320021D6
:10133000786800F0F7FB0346FB73012301930A234F
:1013400000934FF47A7304225449786800F02EFB1E
:1013500041F288320021786800F0E4FB0346FB7319
:10136000012301930A2300934FF47A7304224B491B
:10137000786800F01BFB41F288320021786800F0A9
:10138000D1FB0346FB73012301930A2300934FF41F
:101390007A7308224349786800F008FB41F28832EA
:1013A0000021786800F0BEFB0346FB730123019324
:1013B0000A2300934FF47A7306223B49786800F0C1
:1013C000F5FA41F288320021786800F0ABFB034661
:1013D000FB73012301930A2300934FF47A730B22CA
:1013E0003249786800F0E2FA41F2883200217868E8
:1013F00000F098FB0346FB73012301930A2300933B
:101400004FF47A7318222A49786800F0CFFA41F233
:1014100088320021786800F085FB0346FB730123C6
:1014200001930A2300934FF47A730B2221497868C1
:1014300000F0BCFA41F288320021786800F072FBBB
:101440000346FB73012301930A2300934FF47A733D
:101450000B221949786800F0A9FA41F2883200217C
:10146000786800F05FFB0346FB73012301930A23B6
:1014700000934FF47A730C221049786800F096FAC2
:1014800041F288320021786800F04CFB0346FB7380
:10149000FB7B18461037BD4680BD00BF548900084D
:1014A0005C890008E8890008F48900086889000858
:1014B00074890008908900089C890008A8890008A0
:1014C00080B588B004AF78603960012301930A23A6
:1014D00000934FF47A730A222B49786800F066FA79
:1014E00041F288320021786800F01CFB0346FB7350
:1014F000FB7B002B11D17B6803F500532433796803
:101500007A6802F50052928A92B2184600F01EFEE6
:101510000346002B01D1012300E00023002B24D03F
:101520007B6803F50050243079687B6803F500532D
:101530009B8A9AB23B6802930D2301933A2300934E
:10154000124B00F041FF0346002B0CBF0123002388
:10155000DBB2002B13D13B680D491A460B4603CB77
:10156000106051601B7813720AE03B6808491A4604
:101570000B4603CB106051601B78137200E000BF74
:101580001037BD4680BD00BFC48900080888000828
:1015900010880008B0B588B004AF786039600123C6
:1015A00001930A2300934FF47A730A226F497868F3
:1015B00000F0FCF941F288320021786800F0B2FABC
:1015C0000346FB73FB7B002B11D17B6803F50053B3
:1015D000243379687A6802F50052928A92B21846EA
:1015E00000F0B4FD0346002B01D1012300E00023ED
:1015F000002B00F0AF807B6803F500502430796841
:101600007B6803F500539B8A9AB23B6802930D23D3
:1016100001932C230093564B00F0D6FE0346002B7B
:101620000CBF01230023DBB2002B00F089803B6854
:101630001B78303B072B78D801A252F823F000BF6B
:10164000611600087B16000899160008B1160008FC
:10165000C9160008D9160008F71600080F17000869
:101660003B68444A1C46134607CB20606160A26079
:101670001A889B78A281A37361E03B683E4A1D46AD
:1016800014460FCC28606960AA60EB6003CC286127
:10169000696123782B7652E03B68384A1D46144630
:1016A0000FCC28606960AA60EB602068286146E082
:1016B0003B68334A1D4614460FCC28606960AA6017
:1016C000EB60206828613AE03B682E491A460B46D9
:1016D00003CB1060516032E03B682B4A1D46144634
:1016E0000FCC28606960AA60EB602388A2782B8207
:1016F0001346AB7423E03B68244A1D4614460FCCC6
:1017000028606960AA60EB602068286117E03B6888
:101710001F4A1D4614460FCC28606960AA60EB6022
:1017200007CC28616961AA6109E03B6819491A463A
:101730000B4603CB106051601B78137200BF12E0A0
:101740003B6814491A460B4603CB106051601B7866
:10175000137208E03B680F491A460B4603CB106032
:1017600051601B7813721037BD46B0BDD089000898
:101770001C88000824880008348800085088000865
:101780006488000878880008808800089488000829
:10179000A88800081088000880B58AB004AF786077
:1017A00039600023FB75012301930A2300934FF452
:1017B0007A7308223849786800F0F8F841F28832E4
:1017C0000021786800F0AEF90346BB75BB7D002BA5
:1017D00011D17B6803F50053243379687A6802F5E8
:1017E0000052928A92B2184600F0B0FC0346002BD9
:1017F00001D1012300E00023002B41D07B6803F5D9
:101800000050243079687B6803F500539B8A9AB2B4
:1018100007F10C0302932C2301933A2300931F4BEF
:1018200000F0D2FD0346002B0CBF01230023DBB2E6
:10183000002B1BD007F10C03184604F03BF80346BD
:10184000FB7597F91730622B02DD0023FB7505E06D
:10185000FB7D5B00DBB2713BDBB2FB7597F91730A8
:101860001A460F49386804F0FBFD12E03B680D4949
:101870001A460B4603CB106051601B78137208E0C8
:101880003B6808491A460B4603CB106051601B7831
:1018900013721837BD4680BDDC890008C488000873
:1018A000CC8800081088000880B588B002AFF860C6
:1018B000B9607A603B60012301930A2300934FF4DF
:1018C0007A730A223549F86800F070F841F28832DC
:1018D0000021F86800F026F90346FB75FB7D002B1C
:1018E00011D1FB6803F500532433F968FA6802F557
:1018F0000052928A92B2184600F028FC0346002B50
:1019000001D1012300E00023002B2FD0FB6803F559
:1019100000502430F968FB6803F500539B8A9AB2A3
:101920003B680193BB6800937B6800F035FC03467D
:10193000002B0CBF01230023DBB2002B29D17B68D5
:1019400017491A460B4603CB106051601B7813727F
:10195000BB6814491A460B4603CB106051601B78D4
:1019600013723B68104A1068186013E0FB7D002B6F
:1019700010D1FB6803F500532433F968FA6802F5C7
:101980000052928A92B2184600F0E0FB0346012B07
:1019900000E000BF1837BD4680BD00BFB889000811
:1019A000D8880008E4880008F088000880B584B072
:1019B00000AFF860B96011461A460B46FB8013462B
:1019C000BB80FB684FF480520021184604F0ABFD49
:1019D000FB6803F580534FF480520021184604F051
:1019E000A2FD0021F86800F057F80121F86800F026
:1019F00053F8FB6803F500531A463B7E1372FB68ED
:101A000003F500531A463B7FD372FB6803F500537E
:101A100000225A72FB6803F5005300221A73FB6818
:101A200003F50053FF229A73FB68FA6802F500522F
:101A30001361FB6803F5005300229A82FB6803F5EB
:101A400000532033FA6802F5005211694FF48052B6
:101A5000184600F042FBFB6803F500502030BB88BD
:101A6000FA88B96800F026FB00BF1037BD4680BD7C
:101A700080B483B000AF78600B46FB70FB787A6867
:101A8000134403F50053253301221A7000BF0C37AD
:101A9000BD465DF8047B704780B483B000AF7860CA
:101AA0000B46FB70FB787A68134403F5005325332B
:101AB00000221A7000BF0C37BD465DF8047B7047EA
:101AC00080B485B000AF78600B46FB700023FB73D9
:101AD000FB787A68134403F5005325331B78DBB297
:101AE000002B14BF01230023DBB2002B02D0002304
:101AF000FB7310E0FB787A68134403F50053253339
:101B00001B78DBB2002B0CBF01230023DBB2002BC0
:101B100001D00123FB73FB7B18461437BD465DF8EB
:101B2000047B704780B584B000AF78600B46FB70D3
:101B300013463B800023FB730023BB6001F064FA73
:101B4000B86002E00A2001F06BFAFB781946786869
:101B5000FFF7B6FF0346002B09D001F055FA024605
:101B6000BB68D21A3B889A4201D2012300E00023CD
:101B7000002BE7D1FB7819467868FFF7A1FF0346F1
:101B8000002B14BF01230023DBB2002B01D0012363
:101B9000FB73FB7B18461037BD4680BD80B582B015
:101BA00000AF78600B46FB707B6803F50053DB7A6F
:101BB000DBB2012B0CBF01230023DBB2002B00F0B2
:101BC0008880F8787B6803F500531B695A1C796894
:101BD00001F500510A6102461A707B6803F5005353
:101BE0009B8A9BB201339AB27B6803F500539A82B9
:101BF0007B6803F500531B7BDBB2012B0CBF012379
:101C00000023DBB2002B0CD07B6803F500539B7BD9
:101C10005BB2DBB20133DBB25AB27B6803F500532F
:101C20009A737B6803F500539B7ADBB2012B07D1D3
:101C3000FB784F2B02D0FB78452B01D1012300E02C
:101C40000023002B1BD07B6803F5005300229A72FF
:101C50007B6803F5005301221A73FB784F2B05D1E3
:101C60007B6803F5005302225A730DE0FB78452B85
:101C70000AD17B6803F5005305225A7304E07B68A0
:101C800003F5005300229A72FB780A2B04D17B687B
:101C900003F5005301229A727B6803F500539B7B86
:101CA0005BB21A467B6803F500535B7BDBB29A425A
:101CB000ACBF01230023DBB2002B0AD000217868DF
:101CC000FFF7D6FE7B6803F500532033184600F07B
:101CD00016FA00BF0837BD4680BD000080B584B04D
:101CE00000AF78600B46FB700023FB730023FB738F
:101CF00009E0FB7B114A52F833307A689A4206D0E9
:101D0000FB7B0133FB73FB7B022BF2D900E000BFAE
:101D1000FB7B0A4ADB0013445B68002B09D0FB7B8A
:101D2000064ADB0013445B68FA7811461846FFF751
:101D300035FF00BF1037BD4680BD00BF2802002020
:101D400080B483B000AF786000BF0C37BD465DF84B
:101D5000047B704780B485B000AFF860B9607A60EA
:101D60007B80FB68BA689A60FB687A681A60FB68D7
:101D70007A889A80FB6818461437BD465DF8047B64
:101D8000704780B483B000AF786039607B683A6890
:101D90001A607B6818460C37BD465DF8047B7047B7
:101DA00080B483B000AF78603960064A7B68136006
:101DB000054A3B68136000BF0C37BD465DF8047BE5
:101DC000704700BF480200205402002080B584B054
:101DD00000AF78607B685B6CBB817B6893F84230B6
:101DE000DBB2222B0CBF01230023DBB2002B3FD040
:101DF0007B681B685B689BB2DBB2FB81BB89002BF5
:101E000007D0BB891B021AB2B7F90E3013431BB2BD
:101E1000FB817B681A4A93420AD11A4B1B68002B3C
:101E200006D0184B1B68FA89D2B2114678689847D9
:101E30007B68154A93420AD1144B1B68002B06D0CD
:101E4000124B1B68FA89D2B21146786898477B68B2
:101E50000F4A93420AD10F4B1B68002B06D00D4B43
:101E60001B68FA89D2B2114678689847002303E0CC
:101E70007B681B685B68022318461037BD4680BD2F
:101E80003023002044020020782300204802002054
:101E9000C02300204C02002080B586B000AF7860DF
:101EA0007B681B681B687B617B681B68DB683B6128
:101EB0007B681B685B69FB600023BB607B6903F088
:101EC0000F03BB60BB68002B0DD17B6903F02003BF
:101ED000002B08D03B6903F02003002B03D0786867
:101EE000FFF774FFBCE07B681B685B69FB60BB6845
:101EF000002B00F08380FB6803F00103002B04D16A
:101F00003B6903F49073002B78D07B6903F00103E5
:101F1000002B0FD03B6903F48073002B0AD07B6841
:101F20001B686FF001021A607B685B6C43F0010272
:101F30007B685A647B6903F00203002B0FD0FB68B7
:101F400003F00103002B0AD07B681B686FF00202CC
:101F50001A607B685B6C43F004027B685A647B699F
:101F600003F00403002B0FD0FB6803F00103002BE8
:101F70000AD07B681B686FF004021A607B685B6C98
:101F800043F002027B685A647B6903F00803002B6C
:101F900014D03B6903F02003002B04D1FB6803F04D
:101FA0000103002B0AD07B681B686FF008021A60DF
:101FB0007B685B6C43F008027B685A647B685B6CEF
:101FC000002B14BF01230023DBB2002B45D07B691B
:101FD00003F02003002B0AD03B6903F02003002B01
:101FE00005D07B6800225A647B681B685B68786850
:101FF00002F084FF7B6800225A642EE07B6903F0C4
:102000008003002B2CD03B6903F08003002B27D0EA
:102010007B68154A934207D1144B1B68002B03D0F1
:10202000124B1B68786898477B68114A934207D126
:10203000104B1B68002B03D00E4B1B687868984729
:102040007B680D4A93420AD10C4B1B68002B06D0CB
:102050000A4B1B687868984701E000BF00E000BFAA
:102060001837BD4680BD00BF30230020500200203D
:102070007823002054020020C023002058020020B2
:1020800080B582B000AF78607868FFF705FF00BFC9
:102090000837BD4680BD80B483B000AF786039603A
:1020A0007B683A681A607B6818460C37BD465DF855
:1020B000047B704780B584B000AFF860B9603B60C6
:1020C0001346FB80FB681868FA883B68B96802F021
:1020D0000DFB00BF1037BD4680BD80B584B000AF9A
:1020E000F860B9601346FB80FB681B68FA88B96822
:1020F000184602F086FB00BF1037BD4680BD80B594
:1021000082B000AF78607B681B68184602F09EFBC7
:1021100000BF0837BD4680BD80B582B000AF786093
:1021200039603968786804F006FA034618460837BB
:10213000BD4680BD80B483B000AF78607B68184630
:102140000C37BD465DF8047B7047000080B586B053
:1021500000AFF860B9601346FB800223FB750C49A1
:10216000B86804F065FA0346002B02D00023FB7523
:1021700008E00849B86804F05BFA0346002B01D078
:102180000123FB75FB7D18461837BD4680BD00BF97
:10219000F4880008F888000880B5B4B002AFF86091
:1021A000B9603B601346FB80002387F8C730FF23EC
:1021B00087F8C630FA8807F11C03B968184604F09E
:1021C000C7F907F11C037B49184604F031FA0346AE
:1021D000002B01D10223E9E007F11C033A21184644
:1021E000FFF79AFFC7F8C000D7F8C030002B18D00F
:1021F00007F11C03D7F8C020D31AC7F8BC30D7F8B2
:10220000BC300333C7F8BC3007F11C032C2118463F
:10221000FFF782FFC7F8B800D7F8B830002B1BD003
:1022200001E00223C2E007F11C03D7F8B820D31A5B
:10223000C7F8B430D7F8B4300133C7F8B43007F179
:102240001C032D211846FFF767FFC7F8B000D7F829
:10225000B030002B11D001E00223A7E007F11C03EE
:10226000D7F8B020D31AC7F8A43007F110032D22F5
:102270001A80002387F8C6301CE007F11C032B21CD
:102280001846FFF749FFC7F8AC00D7F8AC30002B71
:102290000ED007F11C03D7F8AC20D31AC7F8A8302A
:1022A00007F110032B221A80012387F8C63001E0C2
:1022B00002237BE0D7F8BC3007F11C0213443E49EF
:1022C000184604F059F9C7F8A000D7F8A030002B41
:1022D0004CD03A49D7F8A00004F04EF9C7F89C005A
:1022E000D7F89C0003F0E6FAC7F89800D7F8A030BA
:1022F00004333249184604F03FF9C7F89400D7F880
:10230000940003F0D7FAC7F89000D7F8A03007334D
:102310002A49184604F030F9C7F88C00D7F88C0029
:1023200003F0C8FAC7F88800254AD7F8903052F869
:102330002330D7F8982001920093D7F88830214AAB
:102340001421386804F058F8D7F8B43007F11C02AB
:10235000134407F110021146184604F00DF9C7F8AE
:102360008400D7F88430002B1FD001E002231DE049
:10237000D7F88410D7F8D00004F0E7F9D7F8840034
:10238000FDF77EFF0346A7F88230B7F88220D7F822
:10239000B4301344BA68134403221946D7F8D40062
:1023A00004F0D6F897F8C73000E002231846C83783
:1023B000BD4680BD348900083C890008408900087A
:1023C000000000204489000880B5A2B000AFF8608A
:1023D000B9603B601346FB80022387F87D30002301
:1023E000A7F88630FA8807F11403B968184604F094
:1023F000AFF807F114033968184604F019F90346D9
:10240000002B01D1022368E097F8902007F1140314
:1024100011461846FFF780FEB867BB6F002B15D03A
:1024200007F11403BA6FD31AC7F8803097F89030C9
:102430003A2B05D1D7F880300233C7F8803007E057
:10244000D7F880300133C7F8803001E0022344E040
:10245000D7F88030A7F87E3030E0B7F87E30BA6821
:1024600013441B7897F894209A420BD0B7F87E302B
:10247000BA681A44B7F88630D7F898100B44127827
:102480001A7011E0B7F87E30BA6813441B7897F8D9
:1024900094209A4208D1B7F88630D7F89820134490
:1024A00000221A70002318E0B7F87E300133A7F835
:1024B0007E30B7F886300133A7F88630B7F886202B
:1024C000F988D7F88030CB1A9A4204DAB7F87E2020
:1024D000FB889A42C1D397F87D3018468837BD46AD
:1024E00080BD000080B5ADF5067D02AF2948FEF73E
:1024F000BBFE002387F80F3207F1CC0307F1680217
:10250000391D2448FFF7D0F907F59873194621487B
:10251000FEF7D6FF07F5CA7319461E48FFF73AF8CB
:1025200007F5FC7319461B48FFF736F93A1D07F10A
:102530006803009313464FF4815241F2100116488C
:10254000FEF7F8FC97F80F329BB21A4642F21001E0
:102550001148FEF7B9FC07F5CA731A4648F2101184
:102560000D48FEF767FD07F5FC731A4648F2202177
:102570000948FEF7A3FD4FF40051084801F017FB8E
:10258000C82000F04DFD97F80F32013387F80F3265
:1025900000BFB1E774020020700200200008024072
:1025A00080B500AFFFF79EFF00BF80BD80B582B051
:1025B00000AF786039607B68012B16D13B684FF61D
:1025C000FF72934211D110230A4A0B490B48FFF7BF
:1025D000C1FB0B490B48FFF7D4FB0B490B48FEF737
:1025E00063FC0B490B48FEF7E1FD00BF0837BD4611
:1025F00080BD00BF00000240E82200205C020020F5
:102600009C2200206C020020302300207002002059
:10261000782300207402002080B500AF4FF6FF71D0
:102620000120FFF7C3FF80BD80B584B000AF3B46FB
:1026300000221A605A609A60DA60214B214A1A60BF
:102640001F4B4FF480325A601D4B00229A601C4B86
:1026500000221A611A4B00221A76194B002283F8C5
:102660002020174B0022DA62154B174A9A62144B4E
:102670000022DA60124B0122DA61114B002283F84A
:1026800030200F4B01225A610D4800F0EDFC03464B
:10269000002B01D000F046F900233B6001237B6052
:1026A0000723BB603B461946054800F021FD034661
:1026B000002B01D000F036F900BF1037BD4680BDB9
:1026C0009C220020002001400100000F80B58AB04C
:1026D00000AF786007F1140300221A605A609A6014
:1026E000DA601A617B681B68174A934227D100237E
:1026F0003B61164B5B6C154A43F480735364134B78
:102700005B6C03F480733B613B690023FB600F4B00
:102710001B6B0E4A43F0010313630C4B1B6B03F05E
:102720000103FB60FB6801237B610323BB61002382
:10273000FB6107F114031946054801F09BF800BF3F
:102740002837BD4680BD00BF002001400038024050
:102750000000024080B588B000AF07F10C030022F2
:102760001A605A609A60DA601A610023BB602A4BD3
:102770001B6B294A43F004031363274B1B6B03F0C5
:102780000403BB60BB6800237B60234B1B6B224AA6
:1027900043F080031363204B1B6B03F080037B60CB
:1027A0007B6800233B601C4B1B6B1B4A43F00103FF
:1027B0001363194B1B6B03F001033B603B68002262
:1027C0004FF40051154801F0D9F9002210211448A6
:1027D00001F0D4F94FF40053FB6001233B61002367
:1027E0007B610023BB6107F10C0319460B4801F024
:1027F00041F81023FB6001233B6100237B61002330
:10280000BB6107F10C031946054801F033F800BF1E
:102810002037BD4680BD00BF00380240000802409E
:102820000000024080B500AF00F088FB00F010F817
:10283000FFF790FF00F010FA00F038FA00F060FAAD
:1028400000F0C4F9FFF7F0FEFFF7AAFE00BFFDE7B6
:1028500080B594B000AF07F1200330220021184664
:1028600003F061FE07F10C0300221A605A609A60BF
:10287000DA601A610023BB60284B1B6C274A43F0C7
:1028800080531364254B1B6C03F08053BB60BB6803
:1028900000237B60224B1B6823F44043204A43F40F
:1028A000004313601E4B1B6803F440437B607B684E
:1028B00001233B624FF480337B620223BB634FF4FE
:1028C0008003FB6319233B64A8237B640223BB645E
:1028D0000423FB6407F12003184601F083F9034643
:1028E000002B01D000F01EF80F23FB6002233B6198
:1028F00000237B614FF48053BB610023FB6107F130
:102900000C030221184601F0E5FB0346002B01D021
:1029100000F008F800BF5037BD4680BD00380240C7
:102920000070004080B400AF72B600BF00BFFDE78A
:1029300080B483B000AF00237B60104B5B6C0F4A08
:1029400043F4804353640D4B5B6C03F480437B6022
:102950007B6800233B60094B1B6C084A43F08053A3
:102960001364064B1B6C03F080533B603B6800BF55
:102970000C37BD465DF8047B704700BF003802404D
:1029800080B400AF00BFFDE780B400AF00BFFDE73B
:1029900080B400AF00BFFDE780B400AF00BFFDE72B
:1029A00080B400AF00BFFDE780B400AF00BFBD46FC
:1029B0005DF8047B704780B400AF00BFBD465DF892
:1029C000047B704780B400AF00BFBD465DF8047B58
:1029D000704780B500AF00F003FB00BF80BD000072
:1029E00080B500AF024801F0E3FF00BF80BD00BF2B
:1029F0003023002080B500AF0248FFF741FB00BF45
:102A000080BD00BF7823002080B500AF024801F0F0
:102A1000CFFF00BF80BD00BFC023002080B400AF47
:102A200001231846BD465DF8047B704780B582B02F
:102A300000AF7860396003F05BFE034616221A602F
:102A40004FF0FF3318460837BD4680BD80B582B0D1
:102A500000AF78604FF0FF317868FFF7E7FF00BF05
:102A6000FDE780B586B000AFF860B9607A600023FA
:102A70007B610AE0AFF300800146BB685A1CBA6074
:102A8000CAB21A707B6901337B617A697B689A42AA
:102A9000F0DB7B6818461837BD4680BD80B586B030
:102AA00000AFF860B9607A6000237B6109E0BB6821
:102AB0005A1CBA601B781846AFF300807B6901335B
:102AC0007B617A697B689A42F1DB7B68184618372C
:102AD000BD4680BD80B483B000AF78604FF0FF3357
:102AE00018460C37BD465DF8047B704780B483B050
:102AF00000AF786039603B684FF400525A600023A1
:102B000018460C37BD465DF8047B704780B483B02F
:102B100000AF7860012318460C37BD465DF8047B92
:102B2000704780B485B000AFF860B9607A60002368
:102B300018461437BD465DF8047B704780B586B0F3
:102B400000AF7860144A154BD31A7B617B693B61F7
:102B5000134B1B68002B02D1114B124A1A60104B09
:102B60001A687B6813443A699A4207D203F0C0FDA1
:102B700003460C221A604FF0FF3309E0084B1B6834
:102B8000FB60074B1A687B681344054A1360FB68B7
:102B900018461837BD4680BD000001200004000023
:102BA000E42200205825002080B400AF064BD3F863
:102BB0008830054A43F47003C2F8883000BFBD4630
:102BC0005DF8047B704700BF00ED00E080B500AF0A
:102BD0000E4B0F4A1A600D4B53225A600B4B0022CA
:102BE0009A600A4B4FF6FF72DA60084B00221A61B6
:102BF000064B00229A61054801F04CFC0346002B6D
:102C000001D0FFF78FFE00BF80BD00BFE82200208B
:102C10000048014080B485B000AF78607B681B68D5
:102C20000B4A93420DD10023FB600A4B5B6C094AAF
:102C300043F480235364074B5B6C03F48023FB60F5
:102C4000FB6800BF1437BD465DF8047B704700BFCA
:102C5000004801400038024080B500AF114B124AD5
:102C60001A60104B4FF4E1325A600E4B00229A600A
:102C70000C4B0022DA600B4B00221A61094B0C222C
:102C80005A61084B00229A61064B0022DA6105481E
:102C900001F0DCFC0346002B01D0FFF743FE00BF30
:102CA00080BD00BF302300200010014080B500AF80
:102CB000114B124A1A60104B4FF4E1325A600E4B1E
:102CC00000229A600C4B0022DA600B4B00221A6142
:102CD000094B0C225A61084B00229A61064B0022D4
:102CE000DA61054801F0B2FC0346002B01D0FFF782
:102CF00019FE00BF80BD00BF7823002000440040C3
:102D000080B500AF114B124A1A60104B4FF4E132FC
:102D10005A600E4B00229A600C4B0022DA600B4B7B
:102D200000221A61094B0C225A61084B00229A6159
:102D3000064B0022DA61054801F088FC0346002BAF
:102D400001D0FFF7EFFD00BF80BD00BFC023002012
:102D50000014014080B58EB000AF786007F1240305
:102D600000221A605A609A60DA601A617B681B68F8
:102D7000584A934235D100233B62574B5B6C564A0D
:102D800043F010035364544B5B6C03F010033B623D
:102D90003B6A0023FB61504B1B6B4F4A43F001031E
:102DA00013634D4B1B6B03F00103FB61FB694FF495
:102DB000C0637B620223BB620023FB6203233B638D
:102DC00007237B6307F124031946444800F052FDB2
:102DD00000220021252000F084FC252000F09DFC2D
:102DE00073E07B681B683E4A934234D10023BB6189
:102DF000394B1B6C384A43F400331364364B1B6C5D
:102E000003F40033BB61BB6900237B61324B1B6B56
:102E1000314A43F0010313632F4B1B6B03F0010393
:102E20007B617B690C237B620223BB620023FB6214
:102E300003233B6307237B6307F1240319462748D9
:102E400000F018FD00220021262000F04AFC262078
:102E500000F063FC39E07B681B68224A934234D15E
:102E600000233B611C4B5B6C1B4A43F02003536403
:102E7000194B5B6C03F020033B613B690023FB6053
:102E8000154B1B6B144A43F001031363124B1B6B6E
:102E900003F00103FB60FB684FF4C0537B62022325
:102EA000BB620023FB6203233B6308237B6307F1C0
:102EB00024031946094800F0DDFC002200214720C8
:102EC00000F00FFC472000F028FC00BF3837BD465B
:102ED00080BD00BF001001400038024000000240E9
:102EE0000044004000140140DFF834D0FFF75CFEDE
:102EF0000C480D490D4A002302E0D458C450043355
:102F0000C4188C42F9D30A4A0A4C002301E013602A
:102F10000432A242FBD303F0F1FBFFF783FC7047BE
:102F2000000001200000002008020020F88D0008A9
:102F30000802002058250020FEE7000080B500AF01
:102F40000E4B1B680D4A43F4007313600B4B1B6858
:102F50000A4A43F480631360084B1B68074A43F432
:102F600080731360032000F0B1FB0F2000F008F81D
:102F7000FFF7DEFC0023184680BD00BF003C024086
:102F800080B582B000AF7860124B1A68124B1B7884
:102F900019464FF47A73B3FBF1F3B2FBF3F318461F
:102FA00000F0C9FB0346002B01D001230EE07B6833
:102FB0000F2B0AD8002279684FF0FF3000F091FB08
:102FC000064A7B681360002300E001231846083797
:102FD000BD4680BD340000203C00002038000020A9
:102FE00080B400AF064B1B781A46064B1B6813448F
:102FF000044A136000BFBD465DF8047B704700BF04
:103000003C0000200824002080B400AF034B1B6864
:103010001846BD465DF8047B704700BF08240020B9
:1030200080B584B000AF7860FFF7EEFFB8607B68D2
:10303000FB60FB68B3F1FF3F05D00A4B1B781A46D3
:10304000FB681344FB6000BFFFF7DEFF0246BB686E
:10305000D31AFA689A42F7D800BF00BF1037BD46AE
:1030600080BD00BF3C00002080B584B000AF786018
:103070000023FB737B68002B01D1012333E07B68C5
:103080001B6C002B09D17868FFF720FB7B680022BE
:103090005A647B68002283F83C207B681B6C03F039
:1030A0001003002B18D17B681B6C23F4885323F08A
:1030B000020343F002027B681A64786800F03AF970
:1030C0007B6800225A647B681B6C23F0030343F087
:1030D00001027B681A6401E00123FB737B68002214
:1030E00083F83C20FB7B18461037BD4680BD0000AE
:1030F00080B485B000AF786039600023BB607B6826
:1031000093F83C30012B01D1022305E17B680122B9
:1031100083F83C203B681B68092B25D97B681B681A
:10312000D9683B681B689BB21A4613465B00134480
:103130001E3B072202FA03F3DA437B681B680A404E
:10314000DA607B681B68D9683B689A683B681B68D3
:103150009BB2184603465B0003441E3B9A407B68C3
:103160001B680A43DA6022E07B681B6819693B68C8
:103170001B689BB21A4613465B001344072202FAEF
:1031800003F3DA437B681B680A401A617B681B689B
:1031900019693B689A683B681B689BB218460346EE
:1031A0005B0003449A407B681B680A431A613B68D2
:1031B0005B68062B24D87B681B68596B3B685A6890
:1031C00013469B001344053B1F2202FA03F3DA4324
:1031D0007B681B680A405A637B681B68596B3B68B5
:1031E0001B689BB218463B685A6813469B00134401
:1031F000053B00FA03F27B681B680A435A634CE004
:103200003B685B680C2B24D87B681B68196B3B6898
:103210005A6813469B001344233B1F2202FA03F310
:10322000DA437B681B680A401A637B681B68196B6A
:103230003B681B689BB218463B685A6813469B0064
:103240001344233B00FA03F27B681B680A431A63AA
:1032500023E07B681B68D96A3B685A6813469B0069
:103260001344413B1F2202FA03F3DA437B681B68D5
:103270000A40DA627B681B68D96A3B681B689BB2AC
:1032800018463B685A6813469B001344413B00FABA
:1032900003F27B681B680A43DA62224BFB607B689F
:1032A0001B68214A934209D13B681B68122B05D148
:1032B000FB685B6843F48002FB685A607B681B68AC
:1032C000194A934223D13B681B68102B03D03B68FB
:1032D0001B68112B1BD1FB685B6843F40002FB6881
:1032E0005A603B681B68102B11D1104B1B68104AA9
:1032F000A2FB03239A0C13469B0013445B00BB60A4
:1033000002E0BB68013BBB60BB68002BF9D17B6866
:10331000002283F83C20002318461437BD465DF890
:10332000047B70470023014000200140340000204E
:1033300083DE1B4380B485B000AF7860794BFB60BF
:10334000FB685B6823F44032FB685A60FB685A688C
:103350007B685B681A43FB685A607B681B685A6825
:103360007B681B6822F480725A607B681B6859680E
:103370007B681B691A027B681B680A435A607B687A
:103380001B685A687B681B6822F040725A607B6831
:103390001B6859687B689A687B681B680A435A6097
:1033A0007B681B689A687B681B6822F400629A60DD
:1033B0007B681B6899687B68DA687B681B680A43CE
:1033C0009A607B689B6A584A934222D07B681B684C
:1033D0009A687B681B6822F070629A607B681B6841
:1033E00099687B689A6A7B681B680A439A607B6865
:1033F0001B689A687B681B6822F040529A607B6861
:103400001B6899687B68DA6A7B681B680A439A6064
:103410000FE07B681B689A687B681B6822F070620B
:103420009A607B681B689A687B681B6822F0405230
:103430009A607B681B689A687B681B6822F00202AE
:103440009A607B681B6899687B681B7E5A007B6862
:103450001B680A439A607B6893F82030002B1BD0CE
:103460007B681B685A687B681B6842F400625A607C
:103470007B681B685A687B681B6822F460425A604C
:103480007B681B6859687B685B6A013B5A037B68F1
:103490001B680A435A6007E07B681B685A687B68B0
:1034A0001B6822F400625A607B681B68DA6A7B68DA
:1034B0001B6822F47002DA627B681B68D96A7B6839
:1034C000DB69013B1A057B681B680A43DA627B688B
:1034D0001B689A687B681B6822F400729A607B689C
:1034E0001B6899687B6893F830305A027B681B68C8
:1034F0000A439A607B681B689A687B681B6822F4A1
:1035000080629A607B681B6899687B685B699A0235
:103510007B681B680A439A6000BF1437BD465DF89C
:10352000047B7047002301400100000F80B485B088
:1035300000AF78607B6803F00703FB600C4BDB682F
:10354000BB60BA684FF6FF031340BB60FB681A020A
:10355000BB68134343F0BF6343F40033BB60044ACA
:10356000BB68D36000BF1437BD465DF8047B70476D
:1035700000ED00E080B400AF044BDB681B0A03F0F1
:1035800007031846BD465DF8047B704700ED00E078
:1035900080B483B000AF0346FB7197F90730002B6E
:1035A0000BDBFB7903F01F02074997F907305B0932
:1035B000012000FA02F241F8232000BF0C37BD467B
:1035C0005DF8047B704700BF00E100E080B483B089
:1035D00000AF03463960FB7197F90730002B0ADB17
:1035E0003B68DAB20C4997F907301201D2B20B44AA
:1035F00083F800230AE03B68DAB20849FB7903F05C
:103600000F03043B1201D2B20B441A7600BF0C37F1
:10361000BD465DF8047B704700E100E000ED00E08E
:1036200080B489B000AFF860B9607A60FB6803F0DD
:103630000703FB61FB69C3F10703042B28BF0423C5
:10364000BB61FB690433062B02D9FB69033B00E035
:1036500000237B614FF0FF32BB6902FA03F3DA43C8
:10366000BB681A407B699A404FF0FF317B6901FAD1
:1036700003F3D9437B680B40134318462437BD46F8
:103680005DF8047B7047000080B582B000AF7860C1
:103690007B68013BB3F1807F01D301230FE00A4A2D
:1036A0007B68013B53600F214FF0FF30FFF78EFF27
:1036B000054B00229A60044B07221A60002318462B
:1036C0000837BD4680BD00BF10E000E080B582B085
:1036D00000AF78607868FFF729FF00BF0837BD4664
:1036E00080BD80B586B000AF0346B9607A60FB73D9
:1036F00000237B61FFF73EFF78617A68B9687869DB
:10370000FFF78EFF024697F90F3011461846FFF774
:103710005DFF00BF1837BD4680BD80B582B000AFE9
:103720000346FB7197F907301846FFF731FF00BFDA
:103730000837BD4680BD80B582B000AF786078683C
:10374000FFF7A2FF034618460837BD4680BD80B587
:1037500084B000AF78607B689B6DFB60FFF754FC22
:10376000B8607B6893F83530DBB2022B08D07B68F9
:1037700080225A657B68002283F83420012352E0BE
:103780007B681B681A687B681B6822F016021A6047
:103790007B681B685A697B681B6822F080025A614B
:1037A0007B681B6C002B03D17B689B6C002B07D0C4
:1037B0007B681B681A687B681B6822F008021A6025
:1037C0007B681B681A687B681B6822F001021A601C
:1037D00013E0FFF719FC0246BB68D31A052B0CD97E
:1037E0007B6820225A657B68032283F835207B683A
:1037F000002283F83420032315E07B681B681B68D4
:1038000003F00103002BE4D17B68DB6D3F229A407B
:10381000FB689A607B68012283F835207B68002270
:1038200083F83420002318461037BD4680BD80B48D
:1038300083B000AF78607B6893F83530DBB2022B41
:1038400004D07B6880225A6501230CE07B68052246
:1038500083F835207B681B681A687B681B6822F038
:1038600001021A60002318460C37BD465DF8047B40
:103870007047000080B489B000AF786039600023E1
:103880007B6100233B610023BB610023FB6159E1A5
:103890000122FB6902FA03F37B613B681B687A69CA
:1038A00013403B613A697B699A4240F048813B682A
:1038B0005B6803F00303012B05D03B685B6803F0F2
:1038C0000303022B30D17B689B68BB61FB695B0003
:1038D000032202FA03F3DB43BA691340BB613B687E
:1038E000DA68FB695B0002FA03F3BA691343BB6150
:1038F0007B68BA699A607B685B68BB610122FB697F
:1039000002FA03F3DB43BA691340BB613B685B68AF
:103910001B0903F00102FB6902FA03F3BA691343BE
:10392000BB617B68BA695A603B685B6803F003035C
:10393000032B17D07B68DB68BB61FB695B0003224C
:1039400002FA03F3DB43BA691340BB613B689A6830
:10395000FB695B0002FA03F3BA691343BB617B683E
:10396000BA69DA603B685B6803F00303022B23D17A
:10397000FB69DA087B68083253F82230BB61FB69C7
:1039800003F007039B000F2202FA03F3DB43BA693B
:103990001340BB613B681A69FB6903F007039B0096
:1039A00002FA03F3BA691343BB61FB69DA087B6867
:1039B0000832B96943F822107B681B68BB61FB6958
:1039C0005B00032202FA03F3DB43BA691340BB61D5
:1039D0003B685B6803F00302FB695B0002FA03F3D8
:1039E000BA691343BB617B68BA691A603B685B685C
:1039F00003F44033002B00F0A2800023FB60574B00
:103A00005B6C564A43F480435364544B5B6C03F441
:103A10008043FB60FB68524AFB699B08023352F803
:103A20002330BB61FB6903F003039B000F2202FA02
:103A300003F3DB43BA691340BB617B68494A934295
:103A400019D07B68484A934213D07B68474A934217
:103A50000DD07B68464A934207D07B68454A934223
:103A600001D1042308E0072306E0032304E0022336
:103A700002E0012300E00023FA6902F00302920051
:103A80009340BA691343BB613549FB699B08023314
:103A9000BA6941F82320384B9B68BB613B69DB4323
:103AA000BA691340BB613B685B6803F48013002B69
:103AB00003D0BA693B691343BB612F4ABB6993606A
:103AC0002D4BDB68BB613B69DB43BA691340BB61CB
:103AD0003B685B6803F40013002B03D0BA693B69B1
:103AE0001343BB61244ABB69D360234B5B68BB6152
:103AF0003B69DB43BA691340BB613B685B6803F415
:103B00000033002B03D0BA693B691343BB611A4AE7
:103B1000BB695360184B1B68BB613B69DB43BA69E7
:103B20001340BB613B685B6803F48033002B03D018
:103B3000BA693B691343BB610F4ABB691360FB69F8
:103B40000133FB61FB690F2B7FF6A2AE00BF00BF04
:103B50002437BD465DF8047B704700BF0038024043
:103B6000003801400000024000040240000802400A
:103B7000000C024000100240003C014080B483B0C1
:103B800000AF78600B467B8013467B707B78002B00
:103B900003D07A887B689A6103E07B881A047B688B
:103BA0009A6100BF0C37BD465DF8047B704780B456
:103BB00085B000AF78600B467B807B685B69FB60FB
:103BC0007A88FB6813401A04FB68D9437B880B4052
:103BD0001A437B689A6100BF1437BD465DF8047BC9
:103BE0007047000080B586B000AF78607B68002B1E
:103BF00001D1012367E27B681B6803F00103002BFE
:103C000075D0884B9B6803F00C03042B0CD0854BBC
:103C10009B6803F00C03082B12D1824B5B6803F402
:103C20008003B3F5800F0BD17E4B1B6803F4003388
:103C3000002B5BD07B685B68002B57D1012342E2ED
:103C40007B685B68B3F5803F06D1764B1B68754A8D
:103C500043F4803313601DE07B685B68B3F5A02FED
:103C60000CD1704B1B686F4A43F4802313606D4B7B
:103C70001B686C4A43F4803313600BE0694B1B688C
:103C8000684A23F480331360664B1B68654A23F44B
:103C9000802313607B685B68002B13D0FFF7B4F9B7
:103CA000386108E0FFF7B0F902463B69D31A642B8C
:103CB00001D9032307E25B4B1B6803F40033002B9D
:103CC000F0D014E0FFF7A0F9386108E0FFF79CF9A5
:103CD00002463B69D31A642B01D90323F3E1514B0C
:103CE0001B6803F40033002BF0D100E000BF7B68B9
:103CF0001B6803F00203002B63D04A4B9B6803F060
:103D00000C03002B0BD0474B9B6803F00C03082BD4
:103D10001CD1444B5B6803F48003002B16D1414B4C
:103D20001B6803F00203002B05D07B68DB68012BC6
:103D300001D00123C7E13B4B1B6823F0F8027B68ED
:103D40001B69DB00374913430B603AE07B68DB6893
:103D5000002B20D0344B01221A60FFF755F938614F
:103D600008E0FFF751F902463B69D31A022B01D94B
:103D70000323A8E12B4B1B6803F00203002BF0D0B8
:103D8000284B1B6823F0F8027B681B69DB00254980
:103D900013430B6015E0244B00221A60FFF734F93F
:103DA000386108E0FFF730F902463B69D31A022B6D
:103DB00001D9032387E11B4B1B6803F00203002B8F
:103DC000F0D17B681B6803F00803002B36D07B68BA
:103DD0005B69002B16D0154B01221A60FFF714F90E
:103DE000386108E0FFF710F902463B69D31A022B4D
:103DF00001D9032367E10B4B5B6F03F00203002B38
:103E0000F0D01BE0094B00221A60FFF7FDF8386183
:103E10000EE0FFF7F9F802463B69D31A022B07D9E7
:103E2000032350E10038024000004742800E474221
:103E3000884B5B6F03F00203002BEAD17B681B68A1
:103E400003F00403002B00F097800023FB75814BE7
:103E50001B6C03F08053002B0FD10023BB607D4B04
:103E60001B6C7C4A43F0805313647A4B1B6C03F049
:103E70008053BB60BB680123FB75774B1B6803F461
:103E80008073002B18D1744B1B68734A43F4807302
:103E90001360FFF7B9F8386108E0FFF7B5F802469C
:103EA0003B69D31A022B01D903230CE16A4B1B682F
:103EB00003F48073002BF0D07B689B68012B06D144
:103EC000644B1B6F634A43F0010313671CE07B687C
:103ED0009B68052B0CD15F4B1B6F5E4A43F00403BC
:103EE00013675C4B1B6F5B4A43F0010313670BE0E6
:103EF000584B1B6F574A23F001031367554B1B6F39
:103F0000544A23F0040313677B689B68002B15D089
:103F1000FFF77AF838610AE0FFF776F802463B6966
:103F2000D31A41F28832934201D90323CBE0494BA3
:103F30001B6F03F00203002BEED014E0FFF764F8D0
:103F400038610AE0FFF760F802463B69D31A41F294
:103F50008832934201D90323B5E03E4B1B6F03F037
:103F60000203002BEED1FB7D012B05D1394B1B6CDD
:103F7000384A23F0805313647B689B69002B00F060
:103F8000A180344B9B6803F00C03082B5CD07B684A
:103F90009B69022B41D1314B00221A60FFF734F8A4
:103FA000386108E0FFF730F802463B69D31A022B6C
:103FB00001D9032387E0274B1B6803F00073002B14
:103FC000F0D17B68DA697B681B6A1A437B685B6A9D
:103FD0009B011A437B689B6A5B08013B1B041A43E5
:103FE0007B68DB6A1B061B4913434B601B4B01229A
:103FF0001A60FFF709F8386108E0FFF705F8024694
:104000003B69D31A022B01D903235CE0114B1B68D7
:1040100003F00073002BF0D054E0104B00221A6024
:10402000FEF7F2FF386108E0FEF7EEFF02463B695B
:10403000D31A022B01D9032345E0064B1B6803F07A
:104040000073002BF0D13DE07B689B69012B07D109
:10405000012338E000380240007000406000474211
:104060001B4B5B68FB607B689B69012B28D0FB685E
:1040700003F480027B68DB699A4221D1FB6803F07C
:104080003F027B681B6A9A421AD1FA6847F6C073EE
:1040900013407A68526A9201934211D1FB6803F48B
:1040A00040327B689B6A5B08013B1B049A4207D144
:1040B000FB6803F070627B68DB6A1B069A4201D0E2
:1040C000012300E0002318461837BD4680BD00BF1D
:1040D0000038024080B584B000AF786039607B68FA
:1040E000002B01D10123CCE0684B1B6803F00703D0
:1040F0003A689A420CD9654B3A68D2B21A70634B4F
:104100001B6803F007033A689A4201D00123B8E024
:104110007B681B6803F00203002B20D07B681B68C0
:1041200003F00403002B05D0594B9B68584A43F415
:10413000E05393607B681B6803F00803002B05D0F5
:10414000534B9B68524A43F460439360504B9B68C7
:1041500023F0F0027B689B684D4913438B607B68BA
:104160001B6803F00103002B44D07B685B68012BC4
:1041700007D1474B1B6803F40033002B19D10123EF
:104180007FE07B685B68022B03D07B685B68032B56
:1041900007D13F4B1B6803F00073002B09D10123AB
:1041A0006FE03B4B1B6803F00203002B01D101239E
:1041B00067E0374B9B6823F003027B685B683449F8
:1041C00013438B60FEF720FFF8600AE0FEF71CFF48
:1041D0000246FB68D31A41F28832934201D9032385
:1041E0004FE02B4B9B6803F00C027B685B689B00E5
:1041F0009A42EBD1254B1B6803F007033A689A42B9
:104200000CD2224B3A68D2B21A70204B1B6803F0D2
:1042100007033A689A4201D0012332E07B681B68A9
:1042200003F00403002B08D0194B9B6823F4E052E1
:104230007B68DB68164913438B607B681B6803F05F
:104240000803002B09D0124B9B6823F460427B6863
:104250001B69DB000E4913438B6000F021F8024616
:104260000B4B9B681B0903F00F030A49CB5C22FA36
:1042700003F3094A1360094B1B681846FEF780FEDA
:10428000002318461037BD4680BD00BF003C0240E9
:1042900000380240FC89000834000020380000206B
:1042A0002DE9B04F90B000AF00237B630023FB6388
:1042B00000233B630023BB63594B9B6803F00C0353
:1042C000082B0DD0082B00F2A180002B02D0042B6C
:1042D00003D09BE0534BBB639BE0534BBB6398E025
:1042E0004F4B5B6803F03F037B634D4B5B6803F40C
:1042F0008003002B28D04A4B5B689B0900223B625D
:104300007A623B6AC3F308000021474B03FB01F2CA
:10431000002300FB03F31344434AA0FB0212FA629A
:104320000A46BA62FA6A1344FB627B6B0022BB61E5
:10433000FA61D7E90623D7E90A01FCF73DFC0246FA
:104340000B461346FB6353E0354B5B689B09002229
:104350003B617A613B69C3F3080A4FF0000B524698
:104360005B464FF000004FF00001590141EAD26175
:10437000500102460B46B2EB0A0863EB0B094FF003
:1043800000024FF000034FEA891343EA98634FEAB3
:104390008812B2EB080463EB09054FF000024FF0FE
:1043A0000003EB0043EA5473E20014461D4614EB8D
:1043B0000A033B6045EB0B037B604FF000024FF0BC
:1043C0000003D7E9004529468B02214643EA915371
:1043D00021468A02104619467B6B0022BB60FA60B8
:1043E000D7E90223FCF7E8FB02460B461346FB63C2
:1043F0000B4B5B681B0C03F0030301335B003B6357
:10440000FA6B3B6BB2FBF3F3BB6302E0054BBB63A0
:1044100000BFBB6B18464037BD46BDE8B08F00BF3C
:10442000003802400024F40040787D0180B400AFE1
:10443000034B1B681846BD465DF8047B704700BF00
:104440003400002080B500AFFFF7F0FF0246054BB7
:104450009B689B0A03F007030349CB5C22FA03F332
:10446000184680BD003802400C8A000880B500AFB5
:10447000FFF7DCFF0246054B9B685B0B03F007036D
:104480000349CB5C22FA03F3184680BD0038024092
:104490000C8A000880B582B000AF78607B68002B82
:1044A00001D1012341E07B6893F83D30DBB2002B62
:1044B00006D17B68002283F83C207868FEF7AAFBCF
:1044C0007B68022283F83D207B681A687B6804338E
:1044D0001946104600F02EF87B68012283F846202A
:1044E0007B68012283F83E207B68012283F83F200D
:1044F0007B68012283F840207B68012283F84120F9
:104500007B68012283F842207B68012283F84320E4
:104510007B68012283F844207B68012283F84520D0
:104520007B68012283F83D20002318460837BD46EA
:1045300080BD000080B485B000AF786039607B68D2
:104540001B68FB607B683A4A93420FD07B68B3F1EB
:10455000804F0BD07B68374A934207D07B68364A3E
:10456000934203D07B68354A934208D1FB6823F01D
:104570007003FB603B685B68FA681343FB607B6811
:104580002B4A93421BD07B68B3F1804F17D07B68D6
:10459000284A934213D07B68274A93420FD07B6806
:1045A000264A93420BD07B68254A934207D07B680A
:1045B000244A934203D07B68234A934208D1FB6884
:1045C00023F44073FB603B68DB68FA681343FB60CD
:1045D000FB6823F080023B685B691343FB607B68E8
:1045E000FA681A603B689A687B68DA623B681A6806
:1045F0007B689A627B680E4A934203D13B681A69D2
:104600007B681A637B6801225A617B681B6903F02F
:104610000103012B05D17B681B6923F001027B6834
:104620001A6100BF1437BD465DF8047B704700BFB8
:10463000000001400004004000080040000C004061
:1046400000400140004401400048014080B582B074
:1046500000AF78607B68002B01D1012342E07B68CA
:1046600093F84130DBB2002B06D17B68002283F83F
:1046700040207868FEF76EFB7B68242283F8412097
:104680007B681B68DA687B681B6822F40052DA607A
:10469000786800F09BFE7B681B681A697B681B6862
:1046A00022F490421A617B681B685A697B681B6818
:1046B00022F02A025A617B681B68DA687B681B68F3
:1046C00042F40052DA607B6800225A647B68202240
:1046D00083F841207B68202283F842207B680022F7
:1046E0005A63002318460837BD4680BD80B58AB09E
:1046F00002AFF860B9603B601346FB8000237B612A
:10470000FB6893F84130DBB2202B75D1BB68002BDE
:1047100002D0FB88002B01D101236EE0FB68002250
:104720005A64FB68212283F84120FEF76DFC786112
:10473000FB68FA889A84FB68FA88DA84FB689B68CD
:10474000B3F5805F08D1FB681B69002B04D10023FF
:10475000FB61BB68BB6103E0BB68FB610023BB611D
:104760002EE03B6800937B6900228021F86800F00E
:10477000E5FB0346002B05D0FB68202283F841208F
:1047800003233AE0FB69002B0BD1BB691B881A4657
:10479000FB681B68C2F308025A60BB690233BB6145
:1047A00007E0FB691A78FB681B685A60FB690133F4
:1047B000FB61FB68DB8C9BB2013B9AB2FB68DA843D
:1047C000FB68DB8C9BB2002BCBD13B6800937B69F1
:1047D00000224021F86800F0B1FB0346002B05D011
:1047E000FB68202283F84120032306E0FB68202297
:1047F00083F84120002300E0022318462037BD46FD
:1048000080BD80B584B000AFF860B9601346FB800E
:10481000FB6893F84230DBB2202B12D1BB68002B2F
:1048200002D0FB88002B01D101230BE0FB680022A2
:104830001A63FB881A46B968F86800F0D8FB03468B
:1048400000E0022318461037BD4680BD80B59AB0FF
:1048500000AF78607B681B680C33BB64BB6C53E8AB
:10486000003F7B647B6C23F490737B667B681B68E2
:104870000C337A6E7A653B65396D7A6D41E80023B9
:10488000FB64FB6C002BE5D17B681B6814337B63F6
:104890007B6B53E8003F3B633B6B23F001033B66BC
:1048A0007B681B6814333A6E3A64FB63F96B3A6CAD
:1048B00041E80023BB63BB6B002BE5D17B681B6B1E
:1048C000012B19D17B681B680C333B623B6A53E8B0
:1048D000003FFB61FB6923F01003FB657B681B68ED
:1048E0000C33FA6DFA62BB62B96AFA6A41E80023D6
:1048F0007B627B6A002BE5D17B681B685B6903F0F8
:104900004003402B3FD17B681B681433FB60FB687E
:1049100053E8003FBB60BB6823F04003BB657B6886
:104920001B681433BA6DBA617B617969BA6941E871
:1049300000233B613B69002BE5D17B68DB6B002BDF
:1049400013D07B68DB6B194A1A657B68DB6B1846F2
:10495000FEF76DFF0346002B22D07B68DB6B1B6DDF
:104960007A68D26B104698471AE07B680022DA8595
:104970007B68202283F842207B6800221A637868D3
:1049800000F0C6FA0CE07B680022DA857B68202202
:1049900083F842207B6800221A63786800F0B8FA36
:1049A000002318466837BD4680BD00BF515100083E
:1049B00080B5BAB000AF78607B681B681B68C7F829
:1049C000E4307B681B68DB68C7F8E0307B681B68F5
:1049D0005B69C7F8DC300023C7F8D8300023C7F87C
:1049E000D430D7F8E43003F00F03C7F8D830D7F845
:1049F000D830002B0FD1D7F8E43003F02003002B80
:104A000009D0D7F8E03003F02003002B03D07868FA
:104A100000F01EFC5BE2D7F8D830002B00F0DE80FF
:104A2000D7F8DC3003F00103002B06D1D7F8E030D3
:104A300003F49073002B00F0D180D7F8E43003F03A
:104A40000103002B0BD0D7F8E03003F48073002B68
:104A500005D07B685B6C43F001027B685A64D7F831
:104A6000E43003F00403002B0BD0D7F8DC3003F064
:104A70000103002B05D07B685B6C43F002027B686E
:104A80005A64D7F8E43003F00203002B0BD0D7F8B8
:104A9000DC3003F00103002B05D07B685B6C43F036
:104AA00004027B685A64D7F8E43003F00803002B53
:104AB00011D0D7F8E03003F02003002B05D1D7F850
:104AC000DC3003F00103002B05D07B685B6C43F006
:104AD00008027B685A647B685B6C002B00F0F281F3
:104AE000D7F8E43003F02003002B08D0D7F8E030EB
:104AF00003F02003002B02D0786800F0A9FB7B684C
:104B00001B685B6903F04003402B0CBF01230023AB
:104B1000DBB2C7F8D4307B685B6C03F00803002B72
:104B200003D1D7F8D430002B4FD0786800F099FA31
:104B30007B681B685B6903F04003402B41D17B68B5
:104B40001B681433C7F89C30D7F89C3053E8003FFB
:104B5000C7F89830D7F8983023F04003C7F8D03022
:104B60007B681B681433D7F8D020C7F8A820C7F893
:104B7000A430D7F8A410D7F8A82041E80023C7F83C
:104B8000A030D7F8A030002BD9D17B68DB6B002B8D
:104B900013D07B68DB6B7E4A1A657B68DB6B18463B
:104BA000FEF745FE0346002B16D07B68DB6B1B6DC2
:104BB0007A68D26B104698470EE0786800F09EF94C
:104BC0000AE0786800F09AF906E0786800F096F953
:104BD0007B6800225A6475E100BF73E17B681B6B40
:104BE000012B40F04F81D7F8E43003F01003002B85
:104BF00000F04881D7F8E03003F01003002B00F0FC
:104C000041810023BB607B681B681B68BB607B68BD
:104C10001B685B68BB60BB687B681B685B6903F0F3
:104C20004003402B40F0B6807B68DB6B1B685B6801
:104C3000A7F8BE30B7F8BE30002B00F045817B6886
:104C40009B8DB7F8BE209A4280F03E817B68B7F812
:104C5000BE20DA857B68DB6BDB69B3F5807F00F013
:104C600088807B681B680C33C7F88830D7F8883099
:104C700053E8003FC7F88430D7F8843023F48073BA
:104C8000C7F8B8307B681B680C33D7F8B820C7F872
:104C90009420C7F89030D7F89010D7F8942041E8C6
:104CA0000023C7F88C30D7F88C30002BD9D17B6823
:104CB0001B6814337B677B6F53E8003F3B673B6F98
:104CC00023F00103C7F8B4307B681B681433D7F8AE
:104CD000B420C7F88020FB67F96FD7F8802041E83F
:104CE0000023BB67BB6F002BE1D17B681B681433CB
:104CF0003B663B6E53E8003FFB65FB6D23F04003D2
:104D0000C7F8B0307B681B681433D7F8B020FA6658
:104D1000BB66B96EFA6E41E800237B667B6E002BA2
:104D2000E3D17B68202283F842207B6800221A634B
:104D30007B681B680C33FB64FB6C53E8003FBB646F
:104D4000BB6C23F01003C7F8AC307B681B680C33D6
:104D5000D7F8AC20BA657B65796DBA6D41E8002360
:104D60003B653B6D002BE3D17B68DB6B1846FEF7A0
:104D7000EEFC7B6802225A637B689A8D7B68DB8D30
:104D80009BB2D31A9BB21946786800F0CBF89BE02F
:104D9000295100087B689A8D7B68DB8D9BB2D31A02
:104DA000A7F8CE307B68DB8D9BB2002B00F08E80A5
:104DB000B7F8CE30002B00F089807B681B680C337D
:104DC000BB63BB6B53E8003F7B637B6B23F4907347
:104DD000C7F8C8307B681B680C33D7F8C8207A64E2
:104DE0003B64396C7A6C41E80023FB63FB6B002B5E
:104DF000E3D17B681B6814337B627B6A53E8003F16
:104E00003B623B6A23F00103C7F8C4307B681B6830
:104E10001433D7F8C4203A63FB62F96A3A6B41E86D
:104E20000023BB62BB6A002BE3D17B68202283F89E
:104E300042207B6800221A637B681B680C333B614D
:104E40003B6953E8003FFB60FB6823F01003C7F8A1
:104E5000C0307B681B680C33D7F8C020FA61BB6197
:104E6000B969FA6941E800237B617B69002BE3D1D2
:104E70007B6802225A63B7F8CE301946786800F092
:104E800051F823E0D7F8E43003F08003002B09D079
:104E9000D7F8E03003F08003002B03D0786800F0EF
:104EA0006FF914E0D7F8E43003F04003002B0ED084
:104EB000D7F8E03003F04003002B08D0786800F00A
:104EC000AFF904E000BF02E000BF00E000BFE83738
:104ED000BD4680BD80B483B000AF786000BF0C37A2
:104EE000BD465DF8047B704780B483B000AF786046
:104EF00000BF0C37BD465DF8047B704780B483B0BB
:104F000000AF786000BF0C37BD465DF8047B70478A
:104F100080B483B000AF786000BF0C37BD465DF849
:104F2000047B704780B483B000AF78600B467B8011
:104F300000BF0C37BD465DF8047B704780B586B076
:104F400000AFF860B9603B601346FB713BE03B6A21
:104F5000B3F1FF3F37D0FEF757F802463B68D31A4C
:104F60003A6A9A4202D33B6A002B01D103233AE00A
:104F7000FB681B68DB6803F00403002B23D0BB68CD
:104F8000802B20D0BB68402B1DD0FB681B681B68A2
:104F900003F00803082B16D100237B61FB681B6814
:104FA0001B687B61FB681B685B687B617B69F868D9
:104FB00000F057F8FB6808225A64FB68002283F867
:104FC000402001230FE0FB681B681A68BB68134090
:104FD000BA689A420CBF01230023DBB21A46FB7960
:104FE0009A42B4D0002318461837BD4680BD80B41D
:104FF00085B000AFF860B9601346FB80FB68BA6803
:105000009A62FB68FA889A85FB68FA88DA85FB68F9
:1050100000225A64FB68222283F84220FB681B6945
:10502000002B07D0FB681B68DA68FB681B6842F43A
:105030008072DA60FB681B685A69FB681B6842F083
:1050400001025A61FB681B68DA68FB681B6842F062
:105050002002DA60002318461437BD465DF8047B51
:10506000704780B495B000AF78607B681B680C33E4
:105070007B637B6B53E8003F3B633B6B23F4907394
:10508000FB647B681B680C33FA6C3A64FB63F96B56
:105090003A6C41E80023BB63BB6B002BE5D17B6816
:1050A0001B6814333B623B6A53E8003FFB61FB69BA
:1050B00023F00103BB647B681B681433BA6CFA628B
:1050C000BB62B96AFA6A41E800237B627B6A002B03
:1050D000E5D17B681B6B012B19D17B681B680C33F6
:1050E000FB60FB6853E8003FBB60BB6823F0100324
:1050F0007B647B681B680C337A6CBA617B6179696D
:10510000BA6941E800233B613B69002BE5D17B682C
:10511000202283F842207B6800221A6300BF5437A4
:10512000BD465DF8047B704780B584B000AF786001
:105130007B689B6BFB60FB680022DA85FB680022C2
:10514000DA84F868FFF7DAFE00BF1037BD4680BD8D
:1051500080B584B000AF78607B689B6BFB60FB68B8
:105160000022DA85FB68202283F84220FB680022B7
:105170001A63F868FFF7CCFE00BF1037BD4680BD4C
:1051800080B485B000AF78607B6893F84130DBB2C3
:10519000212B3ED17B689B68B3F5805F14D17B687F
:1051A0001B69002B10D17B681B6AFB60FB681B88A6
:1051B0001A467B681B68C2F308025A607B681B6A48
:1051C0009A1C7B681A6208E07B681B6A591C7A6823
:1051D00011621A787B681B685A607B68DB8C9BB213
:1051E000013B9BB27A681946D184002B0FD17B68B2
:1051F0001B68DA687B681B6822F08002DA607B68D3
:105200001B68DA687B681B6842F04002DA600023A2
:1052100000E0022318461437BD465DF8047B704752
:1052200080B582B000AF78607B681B68DA687B6805
:105230001B6822F04002DA607B68202283F841205C
:105240007868FFF747FE002318460837BD4680BD43
:1052500080B58CB000AF78607B6893F84230DBB2E9
:10526000222B40F0AE807B689B68B3F5805F17D13E
:105270007B681B69002B13D10023FB627B689B6A50
:10528000BB627B681B685B689BB2C3F308039AB27E
:10529000BB6A1A807B689B6A9A1C7B689A6226E0CC
:1052A0007B689B6AFB620023BB627B689B68B3F5EB
:1052B000805F07D07B689B68002B0AD17B681B69E5
:1052C000002B06D17B681B685B68DAB2FB6A1A7038
:1052D00008E07B681B685B68DBB203F07F03DAB22F
:1052E000FB6A1A707B689B6A5A1C7B689A627B68AF
:1052F000DB8D9BB2013B9BB27A681946D185002BAE
:105300005DD17B681B68DA687B681B6822F020022D
:10531000DA607B681B68DA687B681B6822F480723D
:10532000DA607B681B685A697B681B6822F001029F
:105330005A617B68202283F842207B6800225A63EE
:105340007B681B6B012B35D17B6800221A637B685D
:105350001B680C337B617B6953E8003F3B613B6911
:1053600023F010037B627B681B680C337A6A3A6215
:10537000FB61F9693A6A41E80023BB61BB69002B14
:10538000E5D17B681B681B6803F01003102B0AD162
:105390000023FB607B681B681B68FB607B681B68E5
:1053A0005B68FB60FB687B689B8D19467868FFF73C
:1053B000B9FD02E07868FFF797FD002302E00023C3
:1053C00000E0022318463037BD4680BD2DE9B04FBE
:1053D000C0B000AFC7F8F400D7F8F4301B681B6901
:1053E00023F44050D7F8F430D968D7F8F4301A686D
:1053F00040EA01031361D7F8F4309A68D7F8F43023
:105400001B691A43D7F8F4305B691A43D7F8F430B4
:10541000DB691343C7F8F830D7F8F4301B68DB6852
:1054200023F4164121F00C01D7F8F4301A68D7F8AC
:10543000F8300B43D360D7F8F4301B685B6923F472
:105440004070D7F8F4309969D7F8F4301A6840EA18
:1054500001035361D7F8F4301A688F4B9A4205D094
:10546000D7F8F4301A688D4B9A4204D1FEF7FEFF4C
:10547000C7F8FC0003E0FEF7E5FFC7F8FC00D7F82B
:10548000F430DB69B3F5004F40F00C81D7F8FC3005
:105490000022C7F8E830C7F8EC20D7E93A452246A1
:1054A0002B469118B9655B41FB65D7E91623214668
:1054B00012EB0108294643EB01094FF000024FF0BF
:1054C00000034FEAC90343EA58734FEAC802904603
:1054D0009946234618EB0303C7F8E0302B4649EB07
:1054E0000303C7F8E430D7F8F4305B680022C7F84C
:1054F000D830C7F8DC20D7E936120B46DB183B65FD
:10550000134642EB03037B65D7E91423D7E938013F
:10551000FBF752FB02460B46614BA3FB02235B09E0
:105520001C01D7F8FC300022C7F8D030C7F8D420CF
:10553000D7E9348942464B469118B9645B41FB6414
:10554000D7E91223414612EB010A494643EB010B0E
:105550004FF000024FF000034FEACB0343EA5A73C7
:105560004FEACA0292469B4643461AEB0303C7F82A
:10557000C8304B464BEB0303C7F8CC30D7F8F430B8
:105580005B680022C7F8C030C7F8C420D7E93012E2
:105590000B46DB183B64134642EB03037B64D7E9FD
:1055A0001023D7E93201FBF707FB02460B461146F1
:1055B0003B4BA3FB01235B09642202FB03F3CB1AE1
:1055C000DB0003F13202364BA3FB02235B095B00D5
:1055D00003F4F8731C44D7F8FC300022C7F8B83045
:1055E000C7F8BC20D7E92E8942464B469118B963CB
:1055F0005B41FB63D7E90E234146511839634946A5
:105600004B417B634FF000024FF00003D7E90CAB36
:105610005946CB00514643EA51735146CA001046E1
:105620001946034642469B18C7F8B0304B460A4617
:1056300042EB0303C7F8B430D7F8F4305B680022BC
:10564000C7F8A830C7F8AC20D7E92A120B46DB18F8
:10565000BB62134642EB0303FB62D7E90A23D7E997
:105660002C01FBF7A9FA02460B460D4BA3FB0213D4
:105670005B09642101FB03F3D31ADB003233084AD0
:10568000A2FB03235B0903F00702D7F8F4301B6881
:1056900022449A6006E100BF00100140001401405E
:1056A0001F85EB51D7F8FC300022C7F8A030C7F8AF
:1056B000A420D7E9288942464B46911839625B41BC
:1056C0007B62D7E9082341465418494643EB01055C
:1056D0004FF000024FF00003EB0043EA5473E20086
:1056E00014461D464346E318C7F898304B4645EB31
:1056F0000303C7F89C30D7F8F4305B680022C7F882
:105700009030C7F894204FF000024FF00003D7E923
:10571000244529468B00214643EA917321468A009D
:10572000D7E92601FBF748FA02460B46604BA3FB7C
:1057300002235B091C01D7F8FC300022C7F888302F
:10574000C7F88C20D7E9228942464B469118B961A7
:105750005B41FB61D7E9062341465118396149464F
:105760004B417B614FF000024FF00003D7E904ABDF
:105770005946CB00514643EA51735146CA00104680
:105780001946034642469B18C7F880304B460A46E6
:1057900042EB0303C7F88430D7F8F4305B6800228B
:1057A000BB67FA674FF000024FF00003D7E91E898C
:1057B00049468B00414643EA917341468A00D7E946
:1057C0002001FBF7F9F902460B461146384BA3FBC3
:1057D00001235B09642202FB03F3CB1A1B01323362
:1057E000334AA2FB03235B0903F0F0031C44D7F800
:1057F000FC3000223B677A67D7E91C8942464B465A
:105800009118B9605B41FB60D7E90223414651180A
:10581000396049464B417B604FF000024FF0000376
:10582000D7E900AB5946CB00514643EA5173514684
:10583000CA0010461946034642469B18BB664B46B3
:105840000A4642EB0303FB66D7F8F4305B6800229C
:105850003B667A664FF000024FF00003D7E91889E3
:1058600049468B00414643EA917341468A00D7E995
:105870001A01FBF7A1F902460B460D4BA3FB0213DD
:105880005B09642101FB03F3D31A1B013233084A7D
:10589000A2FB03235B0903F00F02D7F8F4301B6867
:1058A00022449A6000BF07F58077BD46BDE8B08FFF
:1058B0001F85EB510A22002100F07AB8242B2DE934
:1058C000F0478646904601D8012B06D100F010FF24
:1058D000162303600020BDE8F08734480D462A46B1
:1058E00015F8014B065D16F00806F8D12D2C2DD1C8
:1058F0002C780126951C33F0100209D1302C2AD1C6
:105900002A7802F0DF02582A25D16C78102302355C
:1059100006F1004C0CF1FF3C0022BCFBF3F91046F1
:1059200003FB19CAA4F13007092F1BD83C46A34238
:1059300027DD571C07D0814520D301D1A2451DDBAF
:1059400000FB0340012215F8014BEBE72B2C04BFB1
:105950002C78951CCFE7002BDAD1302C0CBF082314
:105960000A23D5E7A4F14107192F01D8373CDEE718
:10597000A4F16107192F04D8573CD8E74FF0FF3244
:10598000E1E7531C08D12223CEF800306046B8F17D
:10599000000FA0D0691E06E006B14042B8F1000F2A
:1059A00099D0002AF6D1C8F8001094E7158A0008AB
:1059B00013460A46014602480068FFF77FBF00BF52
:1059C0004C0000202DE9FF4757EC106B002F0C46D0
:1059D00019463B46BBBF07F100431F4600232D235A
:1059E0000B700D9BDDF830A0914623F02008BCBF62
:1059F00032461646B8F1460F05D0B8F1450F00D132
:105A00000134022100E0032103AB019302AB0093B8
:105A100047EC106B5346224600F046FFB8F1470FA3
:105A2000054619D119F0010F0ED000EB0409002230
:105A3000002330463946FBF74FF808B1CDF80C90FB
:105A40003022039B4B451ED3039B0E9A5B1B2846BB
:105A5000136004B0BDE8F087B8F1460F00EB04090D
:105A6000E5D10378302B0AD1002200233046394695
:105A7000FBF732F818B9C4F10104CAF80040DAF8AB
:105A800000309944D3E7591C03911A70D9E7F7B550
:105A90000029BABF49422D232B23092902704370E4
:105AA00029DD0DF107031D460A271A46B1FBF7F65B
:105AB00007FB1614303402F8014C0C46632C03F13A
:105AC000FF333146F1DC3031941E03F8011C411CD8
:105AD0002346AB420AD30DF109039B1AAC4288BF9F
