:020000040800F2
:1000000000000120212E0008CD280008D528000876
:10001000DD280008E5280008ED28000800000000A1
:10002000000000000000000000000000417C00080B
:10003000F528000800000000917E0008655A0008BD
:10004000712E0008712E0008712E0008712E000814
:10005000712E0008712E0008712E0008712E000804
:10006000712E0008712E0008712E0008712E0008F4
:10007000712E0008712E0008712E0008712E0008E4
:10008000712E0008712E0008712E0008000000007B
:10009000000000000000000000000000712E0008B9
:1000A000712E0008712E0008712E0008712E0008B4
:1000B000712E000805290008712E0008712E000815
:1000C000712E0008712E0008712E0008712E000894
:1000D000712E0008192900082D29000800000000D1
:1000E000712E0008712E0008712E0008000000001B
:1000F000000000000000000000000000712E000859
:1001000000000000712E0008712E0008712E0008FA
:1001100000000000000000000000000000000000DF
:10012000712E0008712E0008712E0008712E000833
:10013000712E000800000000000000000000000018
:10014000000000000000000000000000712E000808
:10015000712E0008712E0008712E00084129000838
:10016000712E0008712E0008000000000000000041
:10017000000000000000000000000000000000007F
:1001800000000000712E00080000000000000000C8
:04019000712E0008C4
:1001A00010B5054C237833B9044B13B10448AFF3B1
:1001B00000800123237010BD0C020020000000000D
:1001C000E0B3000808B5034B1BB103490348AFF384
:1001D000008008BD0000000010020020E0B300080D
:1001E00001F0FF01102A2BDB10F0070F08D010F8E8
:1001F000013B013A8B422DD010F0070F42B3F6D1EC
:10020000F0B441EA012141EA014122F007047FF004
:1002100000070023F0E80256083C85EA010586EA5B
:10022000010685FA47F5A3FA87F586FA47F6A5FA97
:1002300087F68EB9EED1F0BC01F0FF0102F00702A3
:1002400032B110F8013B013A83EA010313B1F8D14E
:100250000020704701387047002D06BF354603382F
:10026000073815F0010F07D1013015F4807F02BF68
:10027000013015F4C03F0130F0BC0138704700BFB9
:10028000034613F8012B002AFBD1181A01387047D6
:1002900081F0004102E000BF83F0004330B54FEA37
:1002A00041044FEA430594EA050F08BF90EA020FA4
:1002B0001FBF54EA000C55EA020C7FEA645C7FEA37
:1002C000655C00F0E2804FEA5454D4EB5555B8BF5A
:1002D0006D420CDD2C4480EA020281EA030382EACB
:1002E000000083EA010180EA020281EA0303362D5D
:1002F00088BF30BD11F0004F4FEA01314FF4801C30
:100300004CEA113102D0404261EB410113F0004F41
:100310004FEA03334CEA133302D0524263EB4303F8
:1003200094EA050F00F0A780A4F10104D5F1200E96
:100330000DDB02FA0EFC22FA05F2801841F10001F1
:1003400003FA0EF2801843FA05F359410EE0A5F1C5
:1003500020050EF1200E012A03FA0EFC28BF4CF0F6
:10036000020C43FA05F3C01851EBE37101F00045AC
:1003700007D54FF0000EDCF1000C7EEB00006EEBB9
:100380000101B1F5801F1BD3B1F5001F0CD3490843
:100390005FEA30004FEA3C0C04F101044FEA44529A
:1003A00012F5800F80F09A80BCF1004F08BF5FEA21
:1003B000500C50F1000041EB045141EA050130BD01
:1003C0005FEA4C0C404141EB0101013C28BFB1F513
:1003D000801FE9D291F0000F04BF01460020B1FA5E
:1003E00081F308BF2033A3F10B03B3F120020CDA31
:1003F0000C3208DD02F1140CC2F10C0201FA0CF00F
:1004000021FA02F10CE002F11402D8BFC2F1200C73
:1004100001FA02F120FA0CFCDCBF41EA0C01904029
:10042000E41AA2BF01EB0451294330BD6FEA040472
:100430001F3C1CDA0C340EDC04F11404C4F120025D
:1004400020FA04F001FA02F340EA030021FA04F36F
:1004500045EA030130BDC4F10C04C4F1200220FAC6
:1004600002F001FA04F340EA0300294630BD21FA04
:1004700004F0294630BD94F0000F83F4801306BFCA
:1004800081F480110134013D4EE77FEA645C18BFBE
:100490007FEA655C29D094EA050F08BF90EA020F55
:1004A00005D054EA000C04BF1946104630BD91EA4D
:1004B000030F1EBF0021002030BD5FEA545C05D150
:1004C0004000494128BF41F0004130BD14F580048F
:1004D0003CBF01F5801130BD01F0004545F0FE4103
:1004E00041F470014FF0000030BD7FEA645C1ABF38
:1004F000194610467FEA655C1CBF0B46024650EA6F
:10050000013406BF52EA033591EA030F41F400219A
:1005100030BD00BF90F0000F04BF0021704730B520
:100520004FF4806404F132044FF000054FF00001F5
:1005300050E700BF90F0000F04BF0021704730B5B6
:100540004FF4806404F1320410F0004548BF40428B
:100550004FF000013EE700BF42004FEAE2014FEAE0
:1005600031014FEA02701FBF12F07F4393F07F4FBB
:1005700081F06051704732F07F4208BF704793F0BE
:100580007F4F04BF41F40021704730B54FF46074D1
:1005900001F0004521F000411CE700BF50EA0102D4
:1005A00008BF704730B54FF000050AE050EA01027D
:1005B00008BF704730B511F0004502D5404261EBED
:1005C00041014FF4806404F132045FEA915C3FF42E
:1005D000D8AE4FF003025FEADC0C18BF03325FEACB
:1005E000DC0C18BF033202EBDC02C2F1200300FA7C
:1005F00003FC20FA02F001FA03FE40EA0E0021FAA1
:1006000002F11444BDE600BF70B54FF0FF0C4CF48E
:10061000E06C1CEA11541DBF1CEA135594EA0C0F40
:1006200095EA0C0F00F0DEF82C4481EA030621EA7B
:100630004C5123EA4C5350EA013518BF52EA0335B6
:1006400041F4801143F4801338D0A0FB02CE4FF068
:100650000005E1FB02E506F00042E0FB03E54FF098
:100660000006E1FB03569CF0000F18BF4EF0010E90
:10067000A4F1FF04B6F5007F64F5407404D25FEA8C
:100680004E0E6D4146EB060642EAC62141EA55513F
:100690004FEAC52040EA5E504FEACE2EB4F1FD0C81
:1006A00088BFBCF5E06F1ED8BEF1004F08BF5FEAFF
:1006B000500E50F1000041EB045170BD06F00046B1
:1006C00046EA010140EA020081EA0301B4EB5C045E
:1006D000C2BFD4EB0C0541EA045170BD41F4801156
:1006E0004FF0000E013C00F3AB8014F1360FDEBF7B
:1006F000002001F0004170BDC4F10004203C35DA57
:100700000C341BDC04F11404C4F1200500FA05F3D9
:1007100020FA04F001FA05F240EA020001F000427A
:1007200021F0004110EBD37021FA04F642EB0601F0
:100730005EEA430E08BF20EAD37070BDC4F10C041A
:10074000C4F1200500FA04F320FA05F001FA04F2DE
:1007500040EA020001F0004110EBD37041F10001CA
:100760005EEA430E08BF20EAD37070BDC4F12005D5
:1007700000FA05F24EEA020E20FA04F301FA05F23D
:1007800043EA020321FA04F001F0004121FA04F2E5
:1007900020EA020000EBD3705EEA430E08BF20EAB5
:1007A000D37070BD94F0000F0FD101F000464000EF
:1007B00041EB010111F4801F08BF013CF7D041EA71
:1007C000060195F0000F18BF704703F00046520075
:1007D00043EB030313F4801F08BF013DF7D043EA46
:1007E0000603704794EA0C0F0CEA135518BF95EAFC
:1007F0000C0F0CD050EA410618BF52EA4306D1D183
:1008000081EA030101F000414FF0000070BD50EAA1
:10081000410606BF1046194652EA430619D094EA2B
:100820000C0F02D150EA013613D195EA0C0F05D115
:1008300052EA03361CBF104619460AD181EA030169
:1008400001F0004141F0FE4141F470014FF0000021
:1008500070BD41F0FE4141F4780170BD70B54FF0BC
:10086000FF0C4CF4E06C1CEA11541DBF1CEA13553C
:1008700094EA0C0F95EA0C0F00F0A7F8A4EB05041E
:1008800081EA030E52EA03354FEA013100F0888015
:100890004FEA03334FF0805545EA131343EA1263DE
:1008A0004FEA022245EA111545EA10654FEA002693
:1008B0000EF000419D4208BF964244F1FD0404F54C
:1008C000407402D25B084FEA3202B61A65EB0305A8
:1008D0005B084FEA32024FF480104FF4002CB6EB65
:1008E000020E75EB030E22BFB61A754640EA0C00E5
:1008F0005B084FEA3202B6EB020E75EB030E22BF25
:10090000B61A754640EA5C005B084FEA3202B6EB65
:10091000020E75EB030E22BFB61A754640EA9C0024
:100920005B084FEA3202B6EB020E75EB030E22BFF4
:10093000B61A754640EADC0055EA060E18D04FEAB2
:10094000051545EA16754FEA06164FEAC30343EA52
:1009500052734FEAC2025FEA1C1CC0D111F4801F1F
:100960000BD141EA00014FF000004FF0004CB6E718
:1009700011F4801F04BF01430020B4F1FD0C88BFB7
:10098000BCF5E06F3FF6AFAEB5EB030C04BFB6EBC2
:10099000020C5FEA500C50F1000041EB045170BDB5
:1009A0000EF0004E4EEA113114EB5C04C2BFD4EBE2
:1009B0000C0541EA045170BD41F480114FF0000E66
:1009C000013C90E645EA060E8DE60CEA135594EAE2
:1009D0000C0F08BF95EA0C0F3FF43BAF94EA0C0FE5
:1009E0000AD150EA01347FF434AF95EA0C0F7FF45A
:1009F00025AF104619462CE795EA0C0F06D152EAAE
:100A000003353FF4FDAE1046194622E750EA410691
:100A100018BF52EA43067FF4C5AE50EA41047FF4A2
:100A20000DAF52EA43057FF4EBAE12E74FF0FF3C07
:100A300006E000BF4FF0010C02E000BF4FF0010CD8
:100A40004DF804CD4FEA410C7FEA6C5C4FEA430C51
:100A500018BF7FEA6C5C1BD001B050EA410C0CBFA0
:100A600052EA430C91EA030F02BF90EA020F002002
:100A7000704710F1000F91EA030F58BF994208BF69
:100A800090422CBFD8176FEAE37040F00100704726
:100A90004FEA410C7FEA6C5C02D150EA013C07D17D
:100AA0004FEA430C7FEA6C5CD6D152EA033CD3D0C8
:100AB0005DF8040B704700BF8446104662468C46C2
:100AC0001946634600E000BF01B5FFF7B7FF0028F5
:100AD00048BF10F1000F01BD4DF808EDFFF7F4FF1E
:100AE0000CBF012000205DF808FB00BF4DF808EDA9
:100AF000FFF7EAFF34BF012000205DF808FB00BFCC
:100B00004DF808EDFFF7E0FF94BF012000205DF8ED
:100B100008FB00BF4DF808EDFFF7CEFF94BF0120A2
:100B200000205DF808FB00BF4DF808EDFFF7C4FF9B
:100B300034BF012000205DF808FB00BF4FEA410CE4
:100B40007FEA6C5C02D150EA013C0AD14FEA430CC7
:100B50007FEA6C5C02D152EA033C02D14FF0000004
:100B600070474FF0010070474FEA410212F5001242
:100B700015D211D56FF47873B3EB625212D94FEAE4
:100B8000C12343F0004343EA505311F0004F23FACE
:100B900002F018BF404270474FF00000704750EA23
:100BA000013005D111F0004008BF6FF000407047E0
:100BB0004FF00000704700BF53B94AB9002908BF81
:100BC00000281CBF4FF0FF314FF0FF3000F06AB932
:100BD000ADF1080C6DE904CE00F006F8DDF804E094
:100BE000DDE9022304B070472DE9F047089D0C466B
:100BF000002B4ED194468C458646B2FA82F262D9D9
:100C00004AB1C2F12003914020FA03F30CFA02FC2E
:100C1000194300FA02FE4FEA1C471FFA8CF6B1FB9B
:100C2000F7F44FEA1E4307FB141143EA014304FBA8
:100C300006F199420AD91CEB030304F1FF3080F05E
:100C40001281994240F20F81023C6344591A1FFA03
:100C50008EF3B1FBF7F007FB101143EA014300FBF1
:100C600006F69E420AD91CEB030300F1FF3180F027
:100C7000FC809E4240F2F980634402389B1B40EAAC
:100C8000044000211DB1D3400022C5E90032BDE877
:100C9000F0878B4205D90DB1C5E900010021084656
:100CA000F5E7B3FA83F1002946D1A34202D390427B
:100CB000C0F0F080861A64EB03030120002DE6D01B
:100CC000C5E90063E3E7002A40F09080A1EB0C0443
:100CD0004FEA1C481FFA8CF70121B4FBF8F64FEAE3
:100CE0001E4308FB164443EA044307FB06F0984200
:100CF00008D91CEB030306F1FF3402D2984200F23C
:100D0000CD8026461C1A1FFA8EF3B4FBF8F008FBC0
:100D1000104443EA044300FB07F79F4208D91CEB49
:100D2000030300F1FF3402D29F4200F2B08020465C
:100D3000DB1B40EA0640A5E7C1F120068B4022FA02
:100D400006F71F4320FA06FC04FA01F343EA0C03FA
:100D5000F44000FA01F8380C4FEA1349B4FBF0FEF6
:100D60001FFA87FC00FB1E4449EA04440EFB0CF901
:100D7000A14502FA01F20AD93C190EF1FF3A80F0BE
:100D80008480A14540F28180AEF1020E3C44A4EB88
:100D900009041FFA83F9B4FBF0F300FB134449EA9A
:100DA000044403FB0CFCA44507D93C1903F1FF30B4
:100DB00067D2A44565D9023B3C4443EA0E40A0FB00
:100DC0000293A4EB0C049C42CE469C4651D34ED0D9
:100DD00055B1B8EB0E0364EB0C0404FA06F6CB40F5
:100DE0001E43CC40C5E90064002150E7C2F1200356
:100DF00020FA03F10CFA02FC24FA03F394400C43AA
:100E00004FEA1C4800FA02FE1FFA8CF7B3FBF8F019
:100E100008FB1031230C43EA014300FB07F1994220
:100E200008D91CEB030300F1FF362CD299422AD9D2
:100E3000023863445B1AA4B2B3FBF8F108FB113328
:100E400044EA034401FB07F3A34208D91CEB040462
:100E500001F1FF3613D2A34211D902396444E41AD6
:100E600041EA004139E70446F0E6084606E7C8458E
:100E7000AED2B9EB020E63EB070C0138A8E731469E
:100E8000EDE7034699E73046D4E7D6467FE763446B
:100E900002384DE70646234608460FE7023E634404
:100EA00030E700BF704700BF80B582B000AF786008
:100EB0004FF4FA7000F09AFEFAE7000080B582B0B5
:100EC00000AF786039607B68012B0CD13B684FF62E
:100ED000FF72934207D10649064800F077FE0649A3
:100EE000064800F0EBF800BF0837BD4680BD00BFE4
:100EF000400C0020280200201C0D00202C020020A5
:100F000080B500AF4FF6FF710120FFF7D7FF80BD1E
:100F100080B582B000AF78604FF47A7000F066FE62
:100F2000FAE7000080B582B000AF7860114800F0A9
:100F3000C9FE114800F02AF9104B114A11490E4818
:100F400000F01CFC10490C4800F04CFA0F490A480C
:100F500000F0AEFA0E49084800F08CFB4FF4005147
:100F60000C4802F03CFD4FF4FA7000F03FFE00BF69
:100F7000E2E700BF440B0020B8020020440200203A
:100F80003A020020300200204902002058020020CE
:100F9000670200200008024080B582B000AF786090
:100FA00039607B68012B0ED13B684FF6FF7293428C
:100FB00009D10749074800F091F8074B4122012168
:100FC000064800F064FE00BF0837BD4680BD00BF84
:100FD000640D0020B802002074020020440B0020A1
:100FE00080B500AF4FF6FF710120FFF7D5FF80BD40
:100FF00080B500AF054800F030FE054800F02DFE3A
:10100000044800F02AFE00BF80BD00BFA00B0020F6
:10101000C40B0020E80B002080B500AFFFF7E8FF0D
:1010200000BF80BD80B584B002AF786039607B6856
:10103000012B25D13B684FF6FF72934220D1182334
:101040000193012300934FF400730F4A0F49104896
:1010500000F0E2FD18230193012300934FF4807305
:101060000C4A0D490D4800F0D7FD182301930123C8
:1010700000934FF480730A4A0A490B4800F0CCFDF4
:1010800000BF0837BD4680BDF8B30008250F000833
:10109000A00B002000B40008110F0008C40B0020B2
:1010A0000CB40008A90E0008E80B002080B500AFC2
:1010B0004FF6FF710120FFF7B5FF80BD80B582B00C
:1010C00000AF786039607B683968184600F091FF9E
:1010D0007B6818460837BD4680BD000080B582B0E9
:1010E00000AF786039607B6818464FF400631A4699
:1010F000002107F0BAFF7B6803F50063642200213A
:10110000184607F0B2FF7B6803F500627B68C3F8FE
:1011100064287A687B68C3F868287B6803F68403D0
:101120003968184600F065FF7B6803F688031846A7
:1011300000F0AEFF114B1B781946114A3B6842F88C
:1011400031300E4B1B780E4ADB0013447A685A602C
:101150000A4B1B780133DAB2084B1A70074B1B7825
:10116000032B02D9054B00221A700649064800F0ED
:10117000C5FD7B6818460837BD4680BD240C00209D
:101180000C0C0020B91B0008551B000880B586B068
:1011900002AF78600023FB73012301930A230093BD
:1011A0004FF47A7304228649786800F063FB41F2B9
:1011B00088320021786800F004FC0346FB730123A9
:1011C00001930A2300934FF47A7304227C497868D0
:1011D00000F050FB41F288320021786800F0F1FB0A
:1011E0000346FB73012301930A2300934FF47A73A0
:1011F00004227349786800F03DFB41F288320021F7
:10120000786800F0DEFB0346FB73012301930A2399
:1012100000934FF47A730B226A49786800F02AFB36
:1012200041F288320021786800F0CBFB0346FB7363
:1012300047F2305000F0DAFC012301930A230093B7
:101240004FF47A7304225E49786800F013FB41F290
:1012500088320021786800F0B4FB0346FB73012359
:1012600001930A2300934FF47A7304225449786857
:1012700000F000FB41F288320021786800F0A1FB09
:101280000346FB73012301930A2300934FF47A73FF
:1012900004224B49786800F0EDFA41F288320021CF
:1012A000786800F08EFB0346FB73012301930A2349
:1012B00000934FF47A7308224349786800F0DAFA11
:1012C00041F288320021786800F07BFB0346FB7313
:1012D000012301930A2300934FF47A7306223B49BA
:1012E000786800F0C7FA41F288320021786800F08F
:1012F00068FB0346FB73012301930A2300934FF419
:101300007A730B223249786800F0B4FA41F28832DD
:101310000021786800F055FB0346FB73012301931D
:101320000A2300934FF47A7318222A49786800F050
:10133000A1FA41F288320021786800F042FB0346AE
:10134000FB73012301930A2300934FF47A730B225A
:101350002149786800F08EFA41F2883200217868DD
:1013600000F02FFB0346FB73012301930A23009334
:101370004FF47A730B221949786800F07BFA41F236
:1013800088320021786800F01CFB0346FB730123C0
:1013900001930A2300934FF47A730C221049786862
:1013A00000F068FA41F288320021786800F009FB09
:1013B0000346FB73FB7B18461037BD4680BD00BF5C
:1013C00030B5000838B50008C4B50008D0B500082D
:1013D00044B5000850B500086CB5000878B50008A1
:1013E00084B5000880B588B004AF78603960012307
:1013F00001930A2300934FF47A730A2229497868EB
:1014000000F038FA41F288320021786800F0D9FA09
:101410000346FB73FB7B002B0FD17B6803F6880030
:1014200079687B68B3F878389BB21A4600F03CFEC6
:101430000346002B01D1012300E00023002B22D022
:101440007B6803F6880079687B68B3F878389AB2CD
:101450003B6802930D2301933A230093124B00F053
:1014600061FF0346002B0CBF01230023DBB2002BDE
:1014700013D13B680D491A460B4603CB10605160EF
:101480001B7813720AE03B6808491A460B4603CBE7
:10149000106051601B78137200E000BF1037BD462A
:1014A00080BD00BFA0B5000818B4000820B4000833
:1014B00090B589B004AF78603960012301930A23A5
:1014C00000934FF47A730A225F49786800F0D2F9EA
:1014D00041F288320021786800F073FA0346FB730A
:1014E000FB7B002B0FD17B6803F6880079687B6853
:1014F000B3F878389BB21A4600F0D6FD0346002BAD
:1015000001D1012300E00023002B00F091807B68D3
:1015100003F6880079687B68B3F878389AB23B683C
:1015200002930D2301932C230093484B00F0FAFE05
:101530000346002B0CBF01230023DBB2002B6DD030
:101540003B681B78303B072B5DD801A252F823F093
:10155000711500088115000895150008A9150008E7
:10156000C1150008D1150008E3150008F31500089F
:101570003B6837491A460B4603CB106051604CE07C
:101580003B6834491A460B4603CB106051601B7808
:10159000137242E03B6830491A460B4603CB106099
:1015A00051601B88138138E03B682C491A460B4672
:1015B00003CB1060516019889B78118193722CE0E5
:1015C0003B6827491A460B4603CB1060516024E064
:1015D0003B68244A1C46134607CB20606160A2602A
:1015E0001BE03B6820491A460B4603CB1060516054
:1015F00013E03B681D491A460B4603CB106051604F
:101600001B78137209E03B6819491A460B4603CB55
:10161000106051601B78137200BF12E03B681449E0
:101620001A460B4603CB106051601B78137208E01A
:101630003B680F491A460B4603CB106051601B787C
:1016400013721437BD4690BDACB500082CB4000829
:1016500034B400083CB4000848B4000854B400088E
:1016600060B4000868B4000874B400087CB40008D2
:1016700020B4000880B58AB004AF786039600023D8
:10168000FB75012301930A2300934FF47A73082218
:101690003649786800F0EEF841F288320021786827
:1016A00000F08FF90346BB75BB7D002B0FD17B6823
:1016B00003F6880079687B68B3F878389BB21A46DD
:1016C00000F0F2FC0346002B01D1012300E00023CF
:1016D000002B3FD07B6803F6880079687B68B3F8FD
:1016E00078389AB207F10C0302932C2301933A2322
:1016F00000931F4B00F016FE0346002B0CBF012386
:101700000023DBB2002B1BD007F10C03184606F0B8
:1017100073FE0346FB7597F91730622B02DD002339
:10172000FB7505E0FB7D5B00DBB2713BDBB2FB755B
:1017300097F917301A460F49386807F033FC12E062
:101740003B680D491A460B4603CB106051601B786D
:10175000137208E03B6808491A460B4603CB106039
:1017600051601B7813721837BD4680BDB8B50008AC
:1017700088B4000890B4000820B4000880B588B090
:1017800002AFF860B9607A603B60012301930A23DD
:1017900000934FF47A730A223249F86800F06AF82D
:1017A00041F288320021F86800F00BF90346FB751E
:1017B000FB7D002B0FD1FB6803F68800F968FB68FE
:1017C000B3F878389BB21A4600F06EFC0346002B43
:1017D00001D1012300E00023002B2DD0FB6803F68C
:1017E0008800F968FB68B3F878389AB23B680193CF
:1017F000BB6800937B6800F07DFC0346002B0CBFA8
:1018000001230023DBB2002B27D17B6816491A463F
:101810000B4603CB106051601B781372BB681349F1
:101820001A460B4603CB106051601B7813723B685D
:101830000F4A1068186011E0FB7D002B0ED1FB6889
:1018400003F68800F968FB68B3F878389BB21A464B
:1018500000F02AFC0346012B00E000BF1837BD460C
:1018600080BD00BF94B500089CB40008A8B400086F
:10187000B4B4000880B584B000AFF860B960114618
:101880001A460B46FB801346BB80FB684FF4006290
:101890000021184607F0E9FBFB6803F500636422AA
:1018A0000021184607F0E1FB0021F86800F049F834
:1018B0000121F86800F045F8FB683A7E83F86C284F
:1018C000FB683A7F83F86F28FB68002283F86D2855
:1018D000FB68002283F87028FB68FF2283F87228D7
:1018E000FA68FB68C3F87428FB680022A3F878281C
:1018F000FB6803F68400FB68D3F874384FF4006289
:10190000194600F098FBFB6803F68400BB88FA8850
:10191000B96800F07DFB00BF1037BD4680BD80B4C4
:1019200083B000AF78600B46FB70FB787A68134495
:10193000012283F8892800BF0C37BD465DF8047B7F
:10194000704780B483B000AF78600B46FB70FB78C3
:101950007A681344002283F8892800BF0C37BD46FB
:101960005DF8047B704780B485B000AF78600B46AB
:10197000FB700023FB73FB787A68134493F8893873
:10198000DBB2002B14BF01230023DBB2002B02D0FB
:101990000023FB730EE0FB787A68134493F88938D0
:1019A000DBB2002B0CBF01230023DBB2002B01D0E4
:1019B0000123FB73FB7B18461437BD465DF8047B9F
:1019C000704780B584B000AF78600B46FB7013465B
:1019D0003B800023FB730023BB6001F081FAB860F9
:1019E00002E00A2000F002F9FB7819467868FFF758
:1019F000BAFF0346002B09D001F072FA0246BB6819
:101A0000D21A3B889A4201D2012300E00023002B26
:101A1000E7D1FB7819467868FFF7A5FF0346002B4E
:101A200014BF01230023DBB2002B01D00123FB7381
:101A3000FB7B18461037BD4680BD80B582B000AF35
:101A400078600B46FB707B6893F86F38DBB2012B34
:101A50000CBF01230023DBB2002B76D0F8787B6823
:101A6000D3F87438591C7A68C2F8741802461A7090
:101A70007B68B3F878389BB201339AB27B68A3F8DD
:101A800078287B6893F87038DBB2012B0CBF0123F8
:101A90000023DBB2002B0AD07B6893F872385BB26C
:101AA000DBB20133DBB25AB27B6883F872287B6801
:101AB00093F86E38DBB2012B07D1FB784F2B02D0A5
:101AC000FB78452B01D1012300E00023002B17D028
:101AD0007B68002283F86E287B68012283F87028D7
:101AE000FB784F2B04D17B68022283F871280BE02E
:101AF000FB78452B08D17B68052283F8712803E029
:101B00007B68002283F86E28FB780A2B03D17B6860
:101B1000012283F86E287B6893F872385BB21A460C
:101B20007B6893F87138DBB29A42ACBF0123002383
:101B3000DBB2002B09D000217868FFF7F0FE7B684C
:101B400003F68403184600F088FA00BF0837BD4644
:101B500080BD000080B584B000AF78600B46FB709C
:101B60000023FB730023FB7309E0FB7B114A52F84F
:101B700033307A689A4206D0FB7B0133FB73FB7BE0
:101B8000022BF2D900E000BFFB7B0A4ADB001344C2
:101B90005B68002B09D0FB7B064ADB0013445B68C3
:101BA000FA7811461846FFF748FF00BF1037BD46C8
:101BB00080BD00BF0C0C002080B483B000AF786003
:101BC00000BF0C37BD465DF8047B704780B483B01E
:101BD00000AF786039607B683A681A607B681846A5
:101BE0000C37BD465DF8047B7047000080B582B0BD
:101BF00000AF78607B684FF47A7202FB03F3054A0A
:101C0000A2FB03239B09184604F0DCFE00BF083743
:101C1000BD4680BDD34D621080B584B000AFF86082
:101C2000B9607A607B80FB6800221A62FB68BA6840
:101C30001A60FB6804337968184607F07EFBFB687E
:101C40007A889A82FB68BA699A61FB68FA69DA61F4
:101C5000FB6818461037BD4680BDB0B584B002AFF2
:101C600078607B6818687B68191D7B689C8A7B6834
:101C70009D697B68DB697A682032019200932B466C
:101C8000224604F041FD00BF0837BD46B0BD80B418
:101C900085B000AFF8607B600B467B8113463B81CB
:101CA000FB687A89A3F85420FB683A89A3F8562088
:101CB000FB687A689A65FB6818461437BD465DF87C
:101CC000047B704790B585B002AF78607B68B3F84D
:101CD000543018467B68B3F856301C467B689A6DC2
:101CE0007B68043300210091214604F01DF8024670
:101CF0007B681A6000BF0C37BD4690BD80B483B0CE
:101D000000AF78603960064A7B681360054A3B681B
:101D1000136000BF0C37BD465DF8047B704700BF01
:101D20002C0C0020380C002080B584B000AF786007
:101D30007B685B6CBB817B6893F84230DBB2222B03
:101D40000CBF01230023DBB2002B3FD07B681B6854
:101D50005B689BB2DBB2FB81BB89002B07D0BB89E0
:101D60001B021AB2B7F90E3013431BB2FB817B681A
:101D70001A4A93420AD11A4B1B68002B06D0184B03
:101D80001B68FA89D2B21146786898477B68154A71
:101D900093420AD1144B1B68002B06D0124B1B68D0
:101DA000FA89D2B21146786898477B680F4A934205
:101DB0000AD10F4B1B68002B06D00D4B1B68FA890C
:101DC000D2B2114678689847002303E07B681B680D
:101DD0005B68022318461037BD4680BD1C0D0020ED
:101DE000280C0020640D00202C0C0020AC0D0020DD
:101DF000300C002080B586B000AF78607B681B682F
:101E00001B687B617B681B68DB683B617B681B68C8
:101E10005B69FB600023BB607B6903F00F03BB6061
:101E2000BB68002B0DD17B6903F02003002B08D089
:101E30003B6903F02003002B03D07868FFF774FFA1
:101E4000BCE07B681B685B69FB60BB68002B00F033
:101E50008380FB6803F00103002B04D13B6903F48A
:101E60009073002B78D07B6903F00103002B0FD017
:101E70003B6903F48073002B0AD07B681B686FF00A
:101E800001021A607B685B6C43F001027B685A6454
:101E90007B6903F00203002B0FD0FB6803F0010302
:101EA000002B0AD07B681B686FF002021A607B6807
:101EB0005B6C43F004027B685A647B6903F00403A3
:101EC000002B0FD0FB6803F00103002B0AD07B68C6
:101ED0001B686FF004021A607B685B6C43F00202BF
:101EE0007B685A647B6903F00803002B14D03B69BC
:101EF00003F02003002B04D1FB6803F00103002B47
:101F00000AD07B681B686FF008021A607B685B6C04
:101F100043F008027B685A647B685B6C002B14BF3B
:101F200001230023DBB2002B45D07B6903F02003A3
:101F3000002B0AD03B6903F02003002B05D07B68FF
:101F400000225A647B681B685B68786803F0AEF80F
:101F50007B6800225A642EE07B6903F08003002B2B
:101F60002CD03B6903F08003002B27D07B68154AF7
:101F7000934207D1144B1B68002B03D0124B1B68F4
:101F8000786898477B68114A934207D1104B1B68C9
:101F9000002B03D00E4B1B68786898477B680D4A6E
:101FA00093420AD10C4B1B68002B06D00A4B1B68CE
:101FB0007868984701E000BF00E000BF1837BD46D1
:101FC00080BD00BF1C0D0020340C0020640D0020DB
:101FD000380C0020AC0D00203C0C002080B582B0F5
:101FE00000AF78607868FFF705FF00BF0837BD468F
:101FF00080BD80B483B000AF786039607B683A6898
:102000001A607B6818460C37BD465DF8047B704744
:1020100080B584B000AFF860B9603B601346FB80C8
:10202000FB681868FA883B68B96802F037FC00BFA3
:102030001037BD4680BD80B584B000AFF860B96090
:102040001346FB80FB681B68FA88B968184602F0E3
:10205000B0FC00BF1037BD4680BD80B582B000AF78
:1020600078607B681B68184602F0C8FC00BF083720
:10207000BD4680BD80B582B000AF786039603968F8
:10208000786806F0FAFF034618460837BD4680BD5B
:1020900080B483B000AF78607B6818460C37BD46CB
:1020A0005DF8047B7047000080B586B000AFF86033
:1020B000B9601346FB800223FB750C49B86807F032
:1020C00059F80346002B02D00023FB7508E00849AD
:1020D000B86807F04FF80346002B01D00123FB75C9
:1020E000FB7D18461837BD4680BD00BFB8B4000858
:1020F000BCB4000880B5B4B002AFF860B9603B6012
:102100001346FB80002387F8C730FF2387F8C630CB
:10211000FA8807F11C03B968184606F0BBFF07F1FF
:102120001C037B49184607F025F80346002B01D114
:102130000223E9E007F11C033A211846FFF79AFF52
:10214000C7F8C000D7F8C030002B18D007F11C0327
:10215000D7F8C020D31AC7F8BC30D7F8BC30033347
:10216000C7F8BC3007F11C032C211846FFF782FF8B
:10217000C7F8B800D7F8B830002B1BD001E0022315
:10218000C2E007F11C03D7F8B820D31AC7F8B4305F
:10219000D7F8B4300133C7F8B43007F11C032D2150
:1021A0001846FFF767FFC7F8B000D7F8B030002B2C
:1021B00011D001E00223A7E007F11C03D7F8B020FB
:1021C000D31AC7F8A43007F110032D221A80002378
:1021D00087F8C6301CE007F11C032B211846FFF7D7
:1021E00049FFC7F8AC00D7F8AC30002B0ED007F190
:1021F0001C03D7F8AC20D31AC7F8A83007F1100396
:102200002B221A80012387F8C63001E002237BE0ED
:10221000D7F8BC3007F11C0213443E49184606F0BB
:102220004DFFC7F8A000D7F8A030002B4CD03A499A
:10223000D7F8A00006F042FFC7F89C00D7F89C0032
:1022400006F0DAF8C7F89800D7F8A030043332491E
:10225000184606F033FFC7F89400D7F8940006F04C
:10226000CBF8C7F89000D7F8A03007332A491846B2
:1022700006F024FFC7F88C00D7F88C0006F0BCF8F5
:10228000C7F88800254AD7F8903052F82330D7F89D
:10229000982001920093D7F88830214A1421386899
:1022A00006F04CFED7F8B43007F11C02134407F1D6
:1022B00010021146184606F001FFC7F88400D7F84F
:1022C0008430002B1FD001E002231DE0D7F88410DA
:1022D000D7F8D00007F031F8D7F88400FDF7D0FF29
:1022E0000346A7F88230B7F88220D7F8B4301344F9
:1022F000BA68134403221946D7F8D40006F0CAFE80
:1023000097F8C73000E002231846C837BD4680BDA5
:10231000F8B4000800B5000804B50008000000206B
:1023200008B5000880B5A2B000AFF860B9603B60A6
:102330001346FB80022387F87D300023A7F8863000
:10234000FA8807F11403B968184606F0A3FE07F1EE
:1023500014033968184606F00DFF0346002B01D11F
:10236000022368E097F8902007F1140311461846FD
:10237000FFF780FEB867BB6F002B15D007F1140381
:10238000BA6FD31AC7F8803097F890303A2B05D13E
:10239000D7F880300233C7F8803007E0D7F88030B4
:1023A0000133C7F8803001E0022344E0D7F88030E1
:1023B000A7F87E3030E0B7F87E30BA6813441B7857
:1023C00097F894209A420BD0B7F87E30BA681A4436
:1023D000B7F88630D7F898100B4412781A7011E0CD
:1023E000B7F87E30BA6813441B7897F894209A4265
:1023F00008D1B7F88630D7F89820134400221A7015
:10240000002318E0B7F87E300133A7F87E30B7F824
:1024100086300133A7F88630B7F88620F988D7F8D8
:102420008030CB1A9A4204DAB7F87E20FB889A42B1
:10243000C1D397F87D3018468837BD4680BD00006F
:1024400080B584B000AF3B4600221A605A609A60A3
:10245000DA60214B214A1A601F4B4FF480325A60D8
:102460001D4B00229A601C4B00221A611A4B00225D
:102470001A76194B002283F82020174B0022DA62CB
:10248000154B174A9A62144B0022DA60124B012254
:10249000DA61114B002283F830200F4B01225A6180
:1024A0000D4800F029FD0346002B01D000F060F933
:1024B00000233B6001237B600723BB603B4619463A
:1024C000054800F05DFD0346002B01D000F050F9F7
:1024D00000BF1037BD4680BD400C002000200140E9
:1024E0000100000F80B58AB000AF786007F11403D7
:1024F00000221A605A609A60DA601A617B681B6871
:10250000174A934227D100233B61164B5B6C154A57
:1025100043F480735364134B5B6C03F480733B612F
:102520003B690023FB600F4B1B6B0E4A43F001031A
:1025300013630C4B1B6B03F00103FB60FB6801236F
:102540007B610323BB610023FB6107F11403194680
:10255000054801F0A7F800BF2837BD4680BD00BF81
:1025600000200140003802400000024080B500AF6A
:10257000FEF752FD04F05CFA00BF80BD80B588B064
:1025800000AF07F10C0300221A605A609A60DA600B
:102590001A610023BB602A4B1B6B294A43F00403DA
:1025A0001363274B1B6B03F00403BB60BB68002362
:1025B0007B60234B1B6B224A43F080031363204B49
:1025C0001B6B03F080037B607B6800233B601C4B2C
:1025D0001B6B1B4A43F001031363194B1B6B03F086
:1025E00001033B603B6800224FF40051154801F0A5
:1025F000DDF900221021144801F0D8F94FF40053FE
:10260000FB6001233B6100237B610023BB6107F179
:102610000C0319460B4801F045F81023FB60012319
:102620003B6100237B610023BB6107F10C0319466A
:10263000054801F037F800BF2037BD4680BD00BF18
:1026400000380240000802400000024080B500AFA0
:1026500000F010FC00F010F8FFF790FF00F098FA7F
:1026600000F0C0FA00F0E8FA00F04CFAFFF7E8FEDC
:10267000FFF77CFF00BFFDE780B594B000AF07F126
:10268000200330220021184606F0EFFC07F10C036E
:1026900000221A605A609A60DA601A610023BB60F7
:1026A000284B1B6C274A43F080531364254B1B6C4B
:1026B00003F08053BB60BB6800237B60224B1B6828
:1026C00023F44043204A43F4004313601E4B1B682D
:1026D00003F440437B607B6801233B624FF480330B
:1026E0007B620223BB634FF48003FB6319233B64CB
:1026F000A8237B640223BB640423FB6407F120034B
:10270000184601F087F90346002B01D000F030F89D
:102710000F23FB6002233B6100237B614FF4805356
:10272000BB610023FB6107F10C030221184601F095
:10273000E9FB0346002B01D000F01AF800BF503728
:10274000BD4680BD003802400070004080B582B0B8
:1027500000AF78607B681B68044A934201D100F0A7
:10276000ABFB00BF0837BD4680BD00BF0004004082
:1027700080B400AF72B600BF00BFFDE780B582B085
:1027800000AF00237B60124B5B6C114A43F4804323
:1027900053640F4B5B6C03F480437B607B680023C6
:1027A0003B600B4B1B6C0A4A43F080531364084B8D
:1027B0001B6C03F080533B603B6800220F216FF0DD
:1027C000010000F0B3FE00BF0837BD4680BD00BF6A
:1027D0000038024080B58EB000AF78600023FB6205
:1027E0000023BB620023FB60334B1B6C324A43F077
:1027F00002031364304B1B6C03F00203FB60FB68A5
:1028000007F1100207F114031146184601F05AFDB2
:102810003B6AFB62FB6A002B03D101F02BFD78635E
:1028200004E001F027FD03465B007B637B6B234ADA
:10283000A2FB03239B0C013BBB62214B214A1A6084
:102840001F4B40F2E732DA601D4ABB6A53601C4BF3
:1028500000221A611A4B00229A60194B00229A61D9
:10286000174801F061FD034687F8333097F833309D
:10287000002B1BD1124801F0A7FD034687F8333027
:1028800097F83330002B11D11D2000F06BFE7B68D0
:102890000F2B08D8002279681D2000F047FE0A4A55
:1028A0007B68136002E0012387F8333097F83330F8
:1028B00018463837BD4680BD0038024083DE1B43D2
:1028C000880C0020000400403800002080B400AFD5
:1028D00000BFFDE780B400AF00BFFDE780B400AFEC
:1028E00000BFFDE780B400AF00BFFDE780B400AFDC
:1028F00000BFFDE780B400AF00BFBD465DF8047BBC
:102900007047000080B500AF024801F0BFFD00BF76
:1029100080BD00BF880C002080B500AF024802F0E7
:102920001FF900BF80BD00BF1C0D002080B500AFA7
:102930000248FFF753FB00BF80BD00BF640D0020BD
:1029400080B500AF024802F00BF900BF80BD00BFA8
:10295000AC0D002080B400AF01231846BD465DF8E1
:10296000047B704780B582B000AF7860396006F0B4
:10297000B7FC034616221A604FF0FF33184608379B
:10298000BD4680BD80B582B000AF78604FF0FF31AA
:102990007868FFF7E7FF00BFFDE780B586B000AFBE
:1029A000F860B9607A6000237B610AE0AFF30080D1
:1029B0000146BB685A1CBA60CAB21A707B690133FF
:1029C0007B617A697B689A42F0DB7B68184618372E
:1029D000BD4680BD80B586B000AFF860B9607A6052
:1029E00000237B6109E0BB685A1CBA601B7818465B
:1029F000AFF300807B6901337B617A697B689A421F
:102A0000F1DB7B6818461837BD4680BD80B483B0C3
:102A100000AF78604FF0FF3318460C37BD465DF8C5
:102A2000047B704780B483B000AF786039603B6846
:102A30004FF400525A60002318460C37BD465DF82B
:102A4000047B704780B483B000AF786001231846E0
:102A50000C37BD465DF8047B704780B485B000AF8D
:102A6000F860B9607A60002318461437BD465DF8F7
:102A7000047B704780B586B000AF7860144A154B70
:102A8000D31A7B617B693B61134B1B68002B02D11E
:102A9000114B124A1A60104B1A687B6813443A694A
:102AA0009A4207D206F01CFC03460C221A604FF033
:102AB000FF3309E0084B1B68FB60074B1A687B6813
:102AC0001344054A1360FB6818461837BD4680BD9D
:102AD0000000012000040000D00C002058920020CB
:102AE00080B400AF064BD3F88830054A43F4700336
:102AF000C2F8883000BFBD465DF8047B704700BF58
:102B000000ED00E080B500AF0E4B0F4A1A600D4B90
:102B100053225A600B4B00229A600A4B4FF6FF7209
:102B2000DA60084B00221A61064B00229A610548C0
:102B300001F0FAFB0346002B01D0FFF719FE00BF9E
:102B400080BD00BFD40C00200048014080B485B097
:102B500000AF78607B681B680B4A93420DD100235D
:102B6000FB600A4B5B6C094A43F480235364074BB8
:102B70005B6C03F48023FB60FB6800BF1437BD4629
:102B80005DF8047B704700BF0048014000380240F8
:102B900080B500AF114B124A1A60104B4FF4E1326E
:102BA0005A600E4B00229A600C4B0022DA600B4BED
:102BB00000221A61094B0C225A61084B00229A61CB
:102BC000064B0022DA61054801F018FE0346002B8F
:102BD00001D0FFF7CDFD00BF80BD00BF1C0D002060
:102BE0000010014080B500AF114B124A1A60104B23
:102BF0004FF4E1325A600E4B00229A600C4B0022D7
:102C0000DA600B4B00221A61094B0C225A61084B07
:102C100000229A61064B0022DA61054801F0EEFDC0
:102C20000346002B01D0FFF7A3FD00BF80BD00BF0E
:102C3000640D00200044004080B500AF114B124AE3
:102C40001A60104B4FF4E1325A600E4B00229A602A
:102C50000C4B0022DA600B4B00221A61094B0C224C
:102C60005A61084B00229A61064B0022DA6105483E
:102C700001F0C4FD0346002B01D0FFF779FD00BF32
:102C800080BD00BFAC0D00200014014080B58EB0A7
:102C900000AF786007F1240300221A605A609A603E
:102CA000DA601A617B681B68584A934235D1002369
:102CB0003B62574B5B6C564A43F010035364544BD2
:102CC0005B6C03F010033B623B6A0023FB61504BDB
:102CD0001B6B4F4A43F0010313634D4B1B6B03F017
:102CE0000103FB61FB694FF4C0637B620223BB629B
:102CF0000023FB6203233B6307237B6307F1240369
:102D00001946444800F0CEFC00220521252000F0A1
:102D10000DFC252000F026FC73E07B681B683E4A12
:102D2000934234D10023BB61394B1B6C384A43F4C6
:102D300000331364364B1B6C03F40033BB61BB6977
:102D400000237B61324B1B6B314A43F00103136359
:102D50002F4B1B6B03F001037B617B690C237B62B0
:102D60000223BB620023FB6203233B6307237B63D5
:102D700007F124031946274800F094FC002205219E
:102D8000262000F0D3FB262000F0ECFB39E07B6826
:102D90001B68224A934234D100233B611C4B5B6C7D
:102DA0001B4A43F020035364194B5B6C03F0200370
:102DB0003B613B690023FB60154B1B6B144A43F0DE
:102DC00001031363124B1B6B03F00103FB60FB68F1
:102DD0004FF4C0537B620223BB620023FB620323D8
:102DE0003B6308237B6307F124031946094800F07D
:102DF00059FC00220521472000F098FB472000F0F5
:102E0000B1FB00BF3837BD4680BD00BF0010014098
:102E1000003802400000024000440040001401401D
:102E2000DFF834D0FFF75CFE0C480D490D4A002353
:102E300002E0D458C4500433C4188C42F9D30A4A6F
:102E40000A4C002301E013600432A242FBD306F0D7
:102E50004DFAFFF7FBFB7047000001200000002047
:102E60000C020020D8B900080C0200205892002063
:102E7000FEE7000080B500AF0E4B1B680D4A43F41F
:102E8000007313600B4B1B680A4A43F480631360A2
:102E9000084B1B68074A43F480731360032000F05B
:102EA0003AFB0F20FFF796FCFFF768FC002318465B
:102EB00080BD00BF003C024080B400AF064B1B78D1
:102EC0001A46064B1B681344044A136000BFBD46F4
:102ED0005DF8047B704700BF3C000020F40D00202B
:102EE00080B400AF034B1B681846BD465DF8047BF9
:102EF000704700BFF40D002080B584B000AF78604B
:102F00000023FB737B68002B01D1012333E07B6836
:102F10001B6C002B09D17868FFF7E4FA7B6800226C
:102F20005A647B68002283F83C207B681B6C03F0AA
:102F30001003002B18D17B681B6C23F4885323F0FB
:102F4000020343F002027B681A64786800F03AF9E1
:102F50007B6800225A647B681B6C23F0030343F0F8
:102F600001027B681A6401E00123FB737B68002285
:102F700083F83C20FB7B18461037BD4680BD00001F
:102F800080B485B000AF786039600023BB607B6897
:102F900093F83C30012B01D1022305E17B6801222B
:102FA00083F83C203B681B68092B25D97B681B688C
:102FB000D9683B681B689BB21A4613465B001344F2
:102FC0001E3B072202FA03F3DA437B681B680A40C0
:102FD000DA607B681B68D9683B689A683B681B6845
:102FE0009BB2184603465B0003441E3B9A407B6835
:102FF0001B680A43DA6022E07B681B6819693B683A
:103000001B689BB21A4613465B001344072202FA60
:1030100003F3DA437B681B680A401A617B681B680C
:1030200019693B689A683B681B689BB2184603465F
:103030005B0003449A407B681B680A431A613B6843
:103040005B68062B24D87B681B68596B3B685A6801
:1030500013469B001344053B1F2202FA03F3DA4395
:103060007B681B680A405A637B681B68596B3B6826
:103070001B689BB218463B685A6813469B00134472
:10308000053B00FA03F27B681B680A435A634CE075
:103090003B685B680C2B24D87B681B68196B3B680A
:1030A0005A6813469B001344233B1F2202FA03F382
:1030B000DA437B681B680A401A637B681B68196BDC
:1030C0003B681B689BB218463B685A6813469B00D6
:1030D0001344233B00FA03F27B681B680A431A631C
:1030E00023E07B681B68D96A3B685A6813469B00DB
:1030F0001344413B1F2202FA03F3DA437B681B6847
:103100000A40DA627B681B68D96A3B681B689BB21D
:1031100018463B685A6813469B001344413B00FA2B
:1031200003F27B681B680A43DA62224BFB607B6810
:103130001B68214A934209D13B681B68122B05D1B9
:10314000FB685B6843F48002FB685A607B681B681D
:10315000194A934223D13B681B68102B03D03B686C
:103160001B68112B1BD1FB685B6843F40002FB68F2
:103170005A603B681B68102B11D1104B1B68104A1A
:10318000A2FB03239A0C13469B0013445B00BB6015
:1031900002E0BB68013BBB60BB68002BF9D17B68D8
:1031A000002283F83C20002318461437BD465DF802
:1031B000047B7047002301400020014034000020C0
:1031C00083DE1B4380B485B000AF7860794BFB6031
:1031D000FB685B6823F44032FB685A60FB685A68FE
:1031E0007B685B681A43FB685A607B681B685A6897
:1031F0007B681B6822F480725A607B681B68596880
:103200007B681B691A027B681B680A435A607B68EB
:103210001B685A687B681B6822F040725A607B68A2
:103220001B6859687B689A687B681B680A435A6008
:103230007B681B689A687B681B6822F400629A604E
:103240007B681B6899687B68DA687B681B680A433F
:103250009A607B689B6A584A934222D07B681B68BD
:103260009A687B681B6822F070629A607B681B68B2
:1032700099687B689A6A7B681B680A439A607B68D6
:103280001B689A687B681B6822F040529A607B68D2
:103290001B6899687B68DA6A7B681B680A439A60D6
:1032A0000FE07B681B689A687B681B6822F070627D
:1032B0009A607B681B689A687B681B6822F04052A2
:1032C0009A607B681B689A687B681B6822F0020220
:1032D0009A607B681B6899687B681B7E5A007B68D4
:1032E0001B680A439A607B6893F82030002B1BD040
:1032F0007B681B685A687B681B6842F400625A60EE
:103300007B681B685A687B681B6822F460425A60BD
:103310007B681B6859687B685B6A013B5A037B6862
:103320001B680A435A6007E07B681B685A687B6821
:103330001B6822F400625A607B681B68DA6A7B684B
:103340001B6822F47002DA627B681B68D96A7B68AA
:10335000DB69013B1A057B681B680A43DA627B68FC
:103360001B689A687B681B6822F400729A607B680D
:103370001B6899687B6893F830305A027B681B6839
:103380000A439A607B681B689A687B681B6822F412
:1033900080629A607B681B6899687B685B699A02A7
:1033A0007B681B680A439A6000BF1437BD465DF80E
:1033B000047B7047002301400100000F80B485B0FA
:1033C00000AF78607B6803F00703FB600C4BDB68A1
:1033D000BB60BA684FF6FF031340BB60FB681A027C
:1033E000BB68134343F0BF6343F40033BB60044A3C
:1033F000BB68D36000BF1437BD465DF8047B7047DF
:1034000000ED00E080B400AF044BDB681B0A03F062
:1034100007031846BD465DF8047B704700ED00E0E9
:1034200080B483B000AF0346FB7197F90730002BDF
:103430000BDBFB7903F01F02074997F907305B09A3
:10344000012000FA02F241F8232000BF0C37BD46EC
:103450005DF8047B704700BF00E100E080B483B0FA
:1034600000AF03463960FB7197F90730002B0ADB88
:103470003B68DAB20C4997F907301201D2B20B441B
:1034800083F800230AE03B68DAB20849FB7903F0CD
:103490000F03043B1201D2B20B441A7600BF0C3763
:1034A000BD465DF8047B704700E100E000ED00E000
:1034B00080B489B000AFF860B9607A60FB6803F04F
:1034C0000703FB61FB69C3F10703042B28BF042337
:1034D000BB61FB690433062B02D9FB69033B00E0A7
:1034E00000237B614FF0FF32BB6902FA03F3DA433A
:1034F000BB681A407B699A404FF0FF317B6901FA43
:1035000003F3D9437B680B40134318462437BD4669
:103510005DF8047B704780B582B000AF7860786852
:10352000FFF74CFF00BF0837BD4680BD80B586B0B1
:1035300000AF0346B9607A60FB7300237B61FFF73D
:1035400061FF78617A68B9687869FFF7B1FF024670
:1035500097F90F3011461846FFF780FF00BF183764
:10356000BD4680BD80B582B000AF0346FB7197F9C0
:1035700007301846FFF754FF00BF0837BD4680BD2F
:1035800080B584B000AF78607B689B6DFB60FFF70F
:10359000A7FCB8607B6893F83530DBB2022B08D00B
:1035A0007B6880225A657B68002283F834200123DF
:1035B00052E07B681B681A687B681B6822F0160261
:1035C0001A607B681B685A697B681B6822F080025E
:1035D0005A617B681B6C002B03D17B689B6C002BB2
:1035E00007D07B681B681A687B681B6822F008029A
:1035F0001A607B681B681A687B681B6822F00102EE
:103600001A6013E0FFF76CFC0246BB68D31A052B67
:103610000CD97B6820225A657B68032283F8352009
:103620007B68002283F83420032315E07B681B6845
:103630001B6803F00103002BE4D17B68DB6D3F22A4
:103640009A40FB689A607B68012283F835207B688A
:10365000002283F83420002318461037BD4680BD71
:1036600080B483B000AF78607B6893F83530DBB20C
:10367000022B04D07B6880225A6501230CE07B6812
:10368000052283F835207B681B681A687B681B68F5
:1036900022F001021A60002318460C37BD465DF87F
:1036A000047B704780B489B000AF78603960002334
:1036B0007B6100233B610023BB610023FB6159E177
:1036C0000122FB6902FA03F37B613B681B687A699C
:1036D00013403B613A697B699A4240F048813B68FC
:1036E0005B6803F00303012B05D03B685B6803F0C4
:1036F0000303022B30D17B689B68BB61FB695B00D5
:10370000032202FA03F3DB43BA691340BB613B684F
:10371000DA68FB695B0002FA03F3BA691343BB6121
:103720007B68BA699A607B685B68BB610122FB6950
:1037300002FA03F3DB43BA691340BB613B685B6881
:103740001B0903F00102FB6902FA03F3BA69134390
:10375000BB617B68BA695A603B685B6803F003032E
:10376000032B17D07B68DB68BB61FB695B0003221E
:1037700002FA03F3DB43BA691340BB613B689A6802
:10378000FB695B0002FA03F3BA691343BB617B6810
:10379000BA69DA603B685B6803F00303022B23D14C
:1037A000FB69DA087B68083253F82230BB61FB6999
:1037B00003F007039B000F2202FA03F3DB43BA690D
:1037C0001340BB613B681A69FB6903F007039B0068
:1037D00002FA03F3BA691343BB61FB69DA087B6839
:1037E0000832B96943F822107B681B68BB61FB692A
:1037F0005B00032202FA03F3DB43BA691340BB61A7
:103800003B685B6803F00302FB695B0002FA03F3A9
:10381000BA691343BB617B68BA691A603B685B682D
:1038200003F44033002B00F0A2800023FB60574BD1
:103830005B6C564A43F480435364544B5B6C03F413
:103840008043FB60FB68524AFB699B08023352F8D5
:103850002330BB61FB6903F003039B000F2202FAD4
:1038600003F3DB43BA691340BB617B68494A934267
:1038700019D07B68484A934213D07B68474A9342E9
:103880000DD07B68464A934207D07B68454A9342F5
:1038900001D1042308E0072306E0032304E0022308
:1038A00002E0012300E00023FA6902F00302920023
:1038B0009340BA691343BB613549FB699B080233E6
:1038C000BA6941F82320384B9B68BB613B69DB43F5
:1038D000BA691340BB613B685B6803F48013002B3B
:1038E00003D0BA693B691343BB612F4ABB6993603C
:1038F0002D4BDB68BB613B69DB43BA691340BB619D
:103900003B685B6803F40013002B03D0BA693B6982
:103910001343BB61244ABB69D360234B5B68BB6123
:103920003B69DB43BA691340BB613B685B6803F4E6
:103930000033002B03D0BA693B691343BB611A4AB9
:10394000BB695360184B1B68BB613B69DB43BA69B9
:103950001340BB613B685B6803F48033002B03D0EA
:10396000BA693B691343BB610F4ABB691360FB69CA
:103970000133FB61FB690F2B7FF6A2AE00BF00BFD6
:103980002437BD465DF8047B704700BF0038024015
:1039900000380140000002400004024000080240DC
:1039A000000C024000100240003C014080B483B093
:1039B00000AF78600B467B8013467B707B78002BD2
:1039C00003D07A887B689A6103E07B881A047B685D
:1039D0009A6100BF0C37BD465DF8047B704780B428
:1039E00085B000AF78600B467B807B685B69FB60CD
:1039F0007A88FB6813401A04FB68D9437B880B4024
:103A00001A437B689A6100BF1437BD465DF8047B9A
:103A10007047000080B586B000AF78607B68002BEF
:103A200001D1012367E27B681B6803F00103002BCF
:103A300075D0884B9B6803F00C03042B0CD0854B8E
:103A40009B6803F00C03082B12D1824B5B6803F4D4
:103A50008003B3F5800F0BD17E4B1B6803F400335A
:103A6000002B5BD07B685B68002B57D1012342E2BF
:103A70007B685B68B3F5803F06D1764B1B68754A5F
:103A800043F4803313601DE07B685B68B3F5A02FBF
:103A90000CD1704B1B686F4A43F4802313606D4B4D
:103AA0001B686C4A43F4803313600BE0694B1B685E
:103AB000684A23F480331360664B1B68654A23F41D
:103AC000802313607B685B68002B13D0FFF708FA34
:103AD000386108E0FFF704FA02463B69D31A642B09
:103AE00001D9032307E25B4B1B6803F40033002B6F
:103AF000F0D014E0FFF7F4F9386108E0FFF7F0F9CF
:103B000002463B69D31A642B01D90323F3E1514BDD
:103B10001B6803F40033002BF0D100E000BF7B688A
:103B20001B6803F00203002B63D04A4B9B6803F031
:103B30000C03002B0BD0474B9B6803F00C03082BA6
:103B40001CD1444B5B6803F48003002B16D1414B1E
:103B50001B6803F00203002B05D07B68DB68012B98
:103B600001D00123C7E13B4B1B6823F0F8027B68BF
:103B70001B69DB00374913430B603AE07B68DB6865
:103B8000002B20D0344B01221A60FFF7A9F93861CD
:103B900008E0FFF7A5F902463B69D31A022B01D9C9
:103BA0000323A8E12B4B1B6803F00203002BF0D08A
:103BB000284B1B6823F0F8027B681B69DB00254952
:103BC00013430B6015E0244B00221A60FFF788F9BD
:103BD000386108E0FFF784F902463B69D31A022BEB
:103BE00001D9032387E11B4B1B6803F00203002B61
:103BF000F0D17B681B6803F00803002B36D07B688C
:103C00005B69002B16D0154B01221A60FFF768F98B
:103C1000386108E0FFF764F902463B69D31A022BCA
:103C200001D9032367E10B4B5B6F03F00203002B09
:103C3000F0D01BE0094B00221A60FFF751F9386100
:103C40000EE0FFF74DF902463B69D31A022B07D964
:103C5000032350E10038024000004742800E4742F3
:103C6000884B5B6F03F00203002BEAD17B681B6873
:103C700003F00403002B00F097800023FB75814BB9
:103C80001B6C03F08053002B0FD10023BB607D4BD6
:103C90001B6C7C4A43F0805313647A4B1B6C03F01B
:103CA0008053BB60BB680123FB75774B1B6803F433
:103CB0008073002B18D1744B1B68734A43F48073D4
:103CC0001360FFF70DF9386108E0FFF709F90246C4
:103CD0003B69D31A022B01D903230CE16A4B1B6801
:103CE00003F48073002BF0D07B689B68012B06D116
:103CF000644B1B6F634A43F0010313671CE07B684E
:103D00009B68052B0CD15F4B1B6F5E4A43F004038D
:103D100013675C4B1B6F5B4A43F0010313670BE0B7
:103D2000584B1B6F574A23F001031367554B1B6F0A
:103D3000544A23F0040313677B689B68002B15D05B
:103D4000FFF7CEF838610AE0FFF7CAF802463B6990
:103D5000D31A41F28832934201D90323CBE0494B75
:103D60001B6F03F00203002BEED014E0FFF7B8F84E
:103D700038610AE0FFF7B4F802463B69D31A41F212
:103D80008832934201D90323B5E03E4B1B6F03F009
:103D90000203002BEED1FB7D012B05D1394B1B6CAF
:103DA000384A23F0805313647B689B69002B00F032
:103DB000A180344B9B6803F00C03082B5CD07B681C
:103DC0009B69022B41D1314B00221A60FFF788F822
:103DD000386108E0FFF784F802463B69D31A022BEA
:103DE00001D9032387E0274B1B6803F00073002BE6
:103DF000F0D17B68DA697B681B6A1A437B685B6A6F
:103E00009B011A437B689B6A5B08013B1B041A43B6
:103E10007B68DB6A1B061B4913434B601B4B01226B
:103E20001A60FFF75DF8386108E0FFF759F80246BD
:103E30003B69D31A022B01D903235CE0114B1B68A9
:103E400003F00073002BF0D054E0104B00221A60F6
:103E5000FFF746F8386108E0FFF742F802463B6991
:103E6000D31A022B01D9032345E0064B1B6803F04C
:103E70000073002BF0D13DE07B689B69012B07D1DB
:103E8000012338E0003802400070004060004742E3
:103E90001B4B5B68FB607B689B69012B28D0FB6830
:103EA00003F480027B68DB699A4221D1FB6803F04E
:103EB0003F027B681B6A9A421AD1FA6847F6C073C0
:103EC00013407A68526A9201934211D1FB6803F45D
:103ED00040327B689B6A5B08013B1B049A4207D116
:103EE000FB6803F070627B68DB6A1B069A4201D0B4
:103EF000012300E0002318461837BD4680BD00BFEF
:103F00000038024080B584B000AF786039607B68CB
:103F1000002B01D10123CCE0684B1B6803F00703A1
:103F20003A689A420CD9654B3A68D2B21A70634B20
:103F30001B6803F007033A689A4201D00123B8E0F6
:103F40007B681B6803F00203002B20D07B681B6892
:103F500003F00403002B05D0594B9B68584A43F4E7
:103F6000E05393607B681B6803F00803002B05D0C7
:103F7000534B9B68524A43F460439360504B9B6899
:103F800023F0F0027B689B684D4913438B607B688C
:103F90001B6803F00103002B44D07B685B68012B96
:103FA00007D1474B1B6803F40033002B19D10123C1
:103FB0007FE07B685B68022B03D07B685B68032B28
:103FC00007D13F4B1B6803F00073002B09D101237D
:103FD0006FE03B4B1B6803F00203002B01D1012370
:103FE00067E0374B9B6823F003027B685B683449CA
:103FF00013438B60FEF774FFF8600AE0FEF770FF72
:104000000246FB68D31A41F28832934201D9032356
:104010004FE02B4B9B6803F00C027B685B689B00B6
:104020009A42EBD1254B1B6803F007033A689A428A
:104030000CD2224B3A68D2B21A70204B1B6803F0A4
:1040400007033A689A4201D0012332E07B681B687B
:1040500003F00403002B08D0194B9B6823F4E052B3
:104060007B68DB68164913438B607B681B6803F031
:104070000803002B09D0124B9B6823F460427B6835
:104080001B69DB000E4913438B6000F021F80246E8
:104090000B4B9B681B0903F00F030A49CB5C22FA08
:1040A00003F3094A1360094B1B681846FEF792FB9D
:1040B000002318461037BD4680BD00BF003C0240BB
:1040C00000380240D8B50008340000203800002035
:1040D0002DE9B04F90B000AF00237B630023FB635A
:1040E00000233B630023BB63594B9B6803F00C0325
:1040F000082B0DD0082B00F2A180002B02D0042B3E
:1041000003D09BE0534BBB639BE0534BBB6398E0F6
:104110004F4B5B6803F03F037B634D4B5B6803F4DD
:104120008003002B28D04A4B5B689B0900223B622E
:104130007A623B6AC3F308000021474B03FB01F29C
:10414000002300FB03F31344434AA0FB0212FA626C
:104150000A46BA62FA6A1344FB627B6B0022BB61B7
:10416000FA61D7E90623D7E90A01FCF725FD0246E3
:104170000B461346FB6353E0354B5B689B090022FB
:104180003B617A613B69C3F3080A4FF0000B52466A
:104190005B464FF000004FF00001590141EAD26147
:1041A000500102460B46B2EB0A0863EB0B094FF0D5
:1041B00000024FF000034FEA891343EA98634FEA85
:1041C0008812B2EB080463EB09054FF000024FF0D0
:1041D0000003EB0043EA5473E20014461D4614EB5F
:1041E0000A033B6045EB0B037B604FF000024FF08E
:1041F0000003D7E9004529468B02214643EA915343
:1042000021468A02104619467B6B0022BB60FA6089
:10421000D7E90223FCF7D0FC02460B461346FB63AA
:104220000B4B5B681B0C03F0030301335B003B6328
:10423000FA6B3B6BB2FBF3F3BB6302E0054BBB6372
:1042400000BFBB6B18464037BD46BDE8B08F00BF0E
:10425000003802400024F40040787D0180B400AFB3
:10426000034B1B681846BD465DF8047B704700BFD2
:104270003400002080B500AFFFF7F0FF0246054B89
:104280009B689B0A03F007030349CB5C22FA03F304
:10429000184680BD00380240E8B5000880B500AF80
:1042A000FFF7DCFF0246054B9B685B0B03F007033F
:1042B0000349CB5C22FA03F3184680BD0038024064
:1042C000E8B5000880B483B000AF786039607B68DF
:1042D0000F221A60124B9B6803F003027B685A603E
:1042E0000F4B9B6803F0F0027B689A600C4B9B6855
:1042F00003F4E0527B68DA60094B9B68DB0803F447
:10430000E0527B681A61074B1B6803F007023B68A9
:104310001A6000BF0C37BD465DF8047B704700BFD4
:1043200000380240003C024080B582B000AF7860A7
:104330007B68002B01D1012341E07B6893F83D307D
:10434000DBB2002B06D17B68002283F83C20786822
:10435000FEF7FCFB7B68022283F83D207B681A682D
:104360007B6804331946104600F0A8F97B680122E7
:1043700083F846207B68012283F83E207B68012277
:1043800083F83F207B68012283F840207B6801226C
:1043900083F841207B68012283F842207B68012258
:1043A00083F843207B68012283F844207B68012244
:1043B00083F845207B68012283F83D2000231846BE
:1043C0000837BD4680BD000080B485B000AF78607E
:1043D0007B6893F83D30DBB2012B01D0012344E030
:1043E0007B68022283F83D207B681B68DA687B6863
:1043F0001B6842F00102DA607B681B681E4A934228
:1044000018D07B681B68B3F1804F13D07B681B68A2
:104410001A4A93420ED07B681B68194A934209D00E
:104420007B681B68174A934204D07B681B68164A56
:10443000934211D17B681B689B6803F00703FB6004
:10444000FB68062B10D07B681B681A687B681B68AA
:1044500042F001021A6007E07B681B681A687B68FB
:104460001B6842F001021A60002318461437BD464B
:104470005DF8047B704700BF00000140000400406D
:1044800000080040000C00400040014080B584B0AE
:1044900000AF78607B681B68DB68FB607B681B682B
:1044A0001B69BB60BB6803F00203002B20D0FB68D4
:1044B00003F00203002B1BD07B681B686FF0020225
:1044C0001A617B6801221A777B681B689B6903F07D
:1044D0000303002B03D0786800F0D2F805E0786879
:1044E00000F0C4F8786800F0D5F87B6800221A77ED
:1044F000BB6803F00403002B20D0FB6803F0040327
:10450000002B1BD07B681B686FF004021A617B686C
:1045100002221A777B681B689B6903F44073002BA7
:1045200003D0786800F0ACF805E0786800F09EF8F9
:10453000786800F0AFF87B6800221A77BB6803F058
:104540000803002B20D0FB6803F00803002B1BD0CE
:104550007B681B686FF008021A617B6804221A7777
:104560007B681B68DB6903F00303002B03D07868CA
:1045700000F086F805E0786800F078F8786800F0D8
:1045800089F87B6800221A77BB6803F01003002BC0
:1045900020D0FB6803F01003002B1BD07B681B6846
:1045A0006FF010021A617B6808221A777B681B681B
:1045B000DB6903F44073002B03D0786800F060F8E7
:1045C00005E0786800F052F8786800F063F87B68DE
:1045D00000221A77BB6803F00103002B0CD0FB68A4
:1045E00003F00103002B07D07B681B686FF001020A
:1045F0001A617868FEF7AAF8BB6803F08003002B05
:104600000CD0FB6803F08003002B07D07B681B688D
:104610006FF080021A61786800F0E6F8BB6803F07A
:104620004003002B0CD0FB6803F04003002B07D0A5
:104630007B681B686FF040021A61786800F034F8FC
:10464000BB6803F02003002B0CD0FB6803F02003B1
:10465000002B07D07B681B686FF020021A61786816
:1046600000F0B8F800BF1037BD4680BD80B483B0FD
:1046700000AF786000BF0C37BD465DF8047B704723
:1046800080B483B000AF786000BF0C37BD465DF8E2
:10469000047B704780B483B000AF786000BF0C37F4
:1046A000BD465DF8047B704780B483B000AF78608E
:1046B00000BF0C37BD465DF8047B704780B485B001
:1046C00000AF786039607B681B68FB607B683A4AA2
:1046D00093420FD07B68B3F1804F0BD07B68374A91
:1046E000934207D07B68364A934203D07B68354AB1
:1046F000934208D1FB6823F07003FB603B685B6862
:10470000FA681343FB607B682B4A93421BD07B689B
:10471000B3F1804F17D07B68284A934213D07B684F
:10472000274A93420FD07B68264A93420BD07B687E
:10473000254A934207D07B68244A934203D07B6882
:10474000234A934208D1FB6823F44073FB603B6823
:10475000DB68FA681343FB60FB6823F080023B6868
:104760005B691343FB607B68FA681A603B689A6870
:104770007B68DA623B681A687B689A627B680E4ADB
:10478000934203D13B681A697B681A637B680122F4
:104790005A617B681B6903F00103012B05D17B681B
:1047A0001B6923F001027B681A6100BF1437BD4604
:1047B0005DF8047B704700BF00000140000400402A
:1047C00000080040000C004000400140004401404F
:1047D0000048014080B483B000AF786000BF0C3760
:1047E000BD465DF8047B704780B483B000AF78604D
:1047F00000BF0C37BD465DF8047B704780B582B0C2
:1048000000AF78607B68002B01D1012342E07B6818
:1048100093F84130DBB2002B06D17B68002283F88D
:1048200040207868FEF732FA7B68242283F8412022
:104830007B681B68DA687B681B6822F40052DA60C8
:10484000786800F09BFE7B681B681A697B681B68B0
:1048500022F490421A617B681B685A697B681B6866
:1048600022F02A025A617B681B68DA687B681B6841
:1048700042F40052DA607B6800225A647B6820228E
:1048800083F841207B68202283F842207B68002245
:104890005A63002318460837BD4680BD80B58AB0EC
:1048A00002AFF860B9603B601346FB8000237B6178
:1048B000FB6893F84130DBB2202B75D1BB68002B2D
:1048C00002D0FB88002B01D101236EE0FB6800229F
:1048D0005A64FB68212283F84120FEF701FB7861CE
:1048E000FB68FA889A84FB68FA88DA84FB689B681C
:1048F000B3F5805F08D1FB681B69002B04D100234E
:10490000FB61BB68BB6103E0BB68FB610023BB616B
:104910002EE03B6800937B6900228021F86800F05C
:10492000E5FB0346002B05D0FB68202283F84120DD
:1049300003233AE0FB69002B0BD1BB691B881A46A5
:10494000FB681B68C2F308025A60BB690233BB6193
:1049500007E0FB691A78FB681B685A60FB69013342
:10496000FB61FB68DB8C9BB2013B9AB2FB68DA848B
:10497000FB68DB8C9BB2002BCBD13B6800937B693F
:1049800000224021F86800F0B1FB0346002B05D05F
:10499000FB68202283F84120032306E0FB682022E5
:1049A00083F84120002300E0022318462037BD464B
:1049B00080BD80B584B000AFF860B9601346FB805D
:1049C000FB6893F84230DBB2202B12D1BB68002B7E
:1049D00002D0FB88002B01D101230BE0FB680022F1
:1049E0001A63FB881A46B968F86800F0D8FB0346DA
:1049F00000E0022318461037BD4680BD80B59AB04E
:104A000000AF78607B681B680C33BB64BB6C53E8F9
:104A1000003F7B647B6C23F490737B667B681B6830
:104A20000C337A6E7A653B65396D7A6D41E8002307
:104A3000FB64FB6C002BE5D17B681B6814337B6344
:104A40007B6B53E8003F3B633B6B23F001033B660A
:104A50007B681B6814333A6E3A64FB63F96B3A6CFB
:104A600041E80023BB63BB6B002BE5D17B681B6B6C
:104A7000012B19D17B681B680C333B623B6A53E8FE
:104A8000003FFB61FB6923F01003FB657B681B683B
:104A90000C33FA6DFA62BB62B96AFA6A41E8002324
:104AA0007B627B6A002BE5D17B681B685B6903F046
:104AB0004003402B3FD17B681B681433FB60FB68CD
:104AC00053E8003FBB60BB6823F04003BB657B68D5
:104AD0001B681433BA6DBA617B617969BA6941E8C0
:104AE00000233B613B69002BE5D17B68DB6B002B2E
:104AF00013D07B68DB6B194A1A657B68DB6B184641
:104B0000FEF7AEFD0346002B22D07B68DB6B1B6DEE
:104B10007A68D26B104698471AE07B680022DA85E3
:104B20007B68202283F842207B6800221A63786821
:104B300000F0C6FA0CE07B680022DA857B68202250
:104B400083F842207B6800221A63786800F0B8FA84
:104B5000002318466837BD4680BD00BF01530008DA
:104B600080B5BAB000AF78607B681B681B68C7F877
:104B7000E4307B681B68DB68C7F8E0307B681B6843
:104B80005B69C7F8DC300023C7F8D8300023C7F8CA
:104B9000D430D7F8E43003F00F03C7F8D830D7F893
:104BA000D830002B0FD1D7F8E43003F02003002BCE
:104BB00009D0D7F8E03003F02003002B03D0786849
:104BC00000F01EFC5BE2D7F8D830002B00F0DE804E
:104BD000D7F8DC3003F00103002B06D1D7F8E03022
:104BE00003F49073002B00F0D180D7F8E43003F089
:104BF0000103002B0BD0D7F8E03003F48073002BB7
:104C000005D07B685B6C43F001027B685A64D7F87F
:104C1000E43003F00403002B0BD0D7F8DC3003F0B2
:104C20000103002B05D07B685B6C43F002027B68BC
:104C30005A64D7F8E43003F00203002B0BD0D7F806
:104C4000DC3003F00103002B05D07B685B6C43F084
:104C500004027B685A64D7F8E43003F00803002BA1
:104C600011D0D7F8E03003F02003002B05D1D7F89E
:104C7000DC3003F00103002B05D07B685B6C43F054
:104C800008027B685A647B685B6C002B00F0F28141
:104C9000D7F8E43003F02003002B08D0D7F8E03039
:104CA00003F02003002B02D0786800F0A9FB7B689A
:104CB0001B685B6903F04003402B0CBF01230023FA
:104CC000DBB2C7F8D4307B685B6C03F00803002BC1
:104CD00003D1D7F8D430002B4FD0786800F099FA80
:104CE0007B681B685B6903F04003402B41D17B6804
:104CF0001B681433C7F89C30D7F89C3053E8003F4A
:104D0000C7F89830D7F8983023F04003C7F8D03070
:104D10007B681B681433D7F8D020C7F8A820C7F8E1
:104D2000A430D7F8A410D7F8A82041E80023C7F88A
:104D3000A030D7F8A030002BD9D17B68DB6B002BDB
:104D400013D07B68DB6B7E4A1A657B68DB6B184689
:104D5000FEF786FC0346002B16D07B68DB6B1B6DD1
:104D60007A68D26B104698470EE0786800F09EF99A
:104D70000AE0786800F09AF906E0786800F096F9A1
:104D80007B6800225A6475E100BF73E17B681B6B8E
:104D9000012B40F04F81D7F8E43003F01003002BD3
:104DA00000F04881D7F8E03003F01003002B00F04A
:104DB00041810023BB607B681B681B68BB607B680C
:104DC0001B685B68BB60BB687B681B685B6903F042
:104DD0004003402B40F0B6807B68DB6B1B685B6850
:104DE000A7F8BE30B7F8BE30002B00F045817B68D5
:104DF0009B8DB7F8BE209A4280F03E817B68B7F861
:104E0000BE20DA857B68DB6BDB69B3F5807F00F061
:104E100088807B681B680C33C7F88830D7F88830E7
:104E200053E8003FC7F88430D7F8843023F4807308
:104E3000C7F8B8307B681B680C33D7F8B820C7F8C0
:104E40009420C7F89030D7F89010D7F8942041E814
:104E50000023C7F88C30D7F88C30002BD9D17B6871
:104E60001B6814337B677B6F53E8003F3B673B6FE6
:104E700023F00103C7F8B4307B681B681433D7F8FC
:104E8000B420C7F88020FB67F96FD7F8802041E88D
:104E90000023BB67BB6F002BE1D17B681B68143319
:104EA0003B663B6E53E8003FFB65FB6D23F0400320
:104EB000C7F8B0307B681B681433D7F8B020FA66A7
:104EC000BB66B96EFA6E41E800237B667B6E002BF1
:104ED000E3D17B68202283F842207B6800221A639A
:104EE0007B681B680C33FB64FB6C53E8003FBB64BE
:104EF000BB6C23F01003C7F8AC307B681B680C3325
:104F0000D7F8AC20BA657B65796DBA6D41E80023AE
:104F10003B653B6D002BE3D17B68DB6B1846FEF7EE
:104F20002FFB7B6802225A637B689A8D7B68DB8D3E
:104F30009BB2D31A9BB21946786800F0CBF89BE07D
:104F4000D95200087B689A8D7B68DB8D9BB2D31A9F
:104F5000A7F8CE307B68DB8D9BB2002B00F08E80F3
:104F6000B7F8CE30002B00F089807B681B680C33CB
:104F7000BB63BB6B53E8003F7B637B6B23F4907395
:104F8000C7F8C8307B681B680C33D7F8C8207A6430
:104F90003B64396C7A6C41E80023FB63FB6B002BAC
:104FA000E3D17B681B6814337B627B6A53E8003F64
:104FB0003B623B6A23F00103C7F8C4307B681B687F
:104FC0001433D7F8C4203A63FB62F96A3A6B41E8BC
:104FD0000023BB62BB6A002BE3D17B68202283F8ED
:104FE00042207B6800221A637B681B680C333B619C
:104FF0003B6953E8003FFB60FB6823F01003C7F8F0
:10500000C0307B681B680C33D7F8C020FA61BB61E5
:10501000B969FA6941E800237B617B69002BE3D120
:105020007B6802225A63B7F8CE301946786800F0E0
:1050300051F823E0D7F8E43003F08003002B09D0C7
:10504000D7F8E03003F08003002B03D0786800F03D
:105050006FF914E0D7F8E43003F04003002B0ED0D2
:10506000D7F8E03003F04003002B08D0786800F058
:10507000AFF904E000BF02E000BF00E000BFE83786
:10508000BD4680BD80B483B000AF786000BF0C37F0
:10509000BD465DF8047B704780B483B000AF786094
:1050A00000BF0C37BD465DF8047B704780B483B009
:1050B00000AF786000BF0C37BD465DF8047B7047D9
:1050C00080B483B000AF786000BF0C37BD465DF898
:1050D000047B704780B483B000AF78600B467B8060
:1050E00000BF0C37BD465DF8047B704780B586B0C5
:1050F00000AFF860B9603B601346FB713BE03B6A70
:10510000B3F1FF3F37D0FDF7EBFE02463B68D31A01
:105110003A6A9A4202D33B6A002B01D103233AE058
:10512000FB681B68DB6803F00403002B23D0BB681B
:10513000802B20D0BB68402B1DD0FB681B681B68F0
:1051400003F00803082B16D100237B61FB681B6862
:105150001B687B61FB681B685B687B617B69F86827
:1051600000F057F8FB6808225A64FB68002283F8B5
:10517000402001230FE0FB681B681A68BB681340DE
:10518000BA689A420CBF01230023DBB21A46FB79AE
:105190009A42B4D0002318461837BD4680BD80B46B
:1051A00085B000AFF860B9601346FB80FB68BA6851
:1051B0009A62FB68FA889A85FB68FA88DA85FB6848
:1051C00000225A64FB68222283F84220FB681B6994
:1051D000002B07D0FB681B68DA68FB681B6842F489
:1051E0008072DA60FB681B685A69FB681B6842F0D2
:1051F00001025A61FB681B68DA68FB681B6842F0B1
:105200002002DA60002318461437BD465DF8047B9F
:10521000704780B495B000AF78607B681B680C3332
:105220007B637B6B53E8003F3B633B6B23F49073E2
:10523000FB647B681B680C33FA6C3A64FB63F96BA4
:105240003A6C41E80023BB63BB6B002BE5D17B6864
:105250001B6814333B623B6A53E8003FFB61FB6908
:1052600023F00103BB647B681B681433BA6CFA62D9
:10527000BB62B96AFA6A41E800237B627B6A002B51
:10528000E5D17B681B6B012B19D17B681B680C3344
:10529000FB60FB6853E8003FBB60BB6823F0100372
:1052A0007B647B681B680C337A6CBA617B617969BB
:1052B000BA6941E800233B613B69002BE5D17B687B
:1052C000202283F842207B6800221A6300BF5437F3
:1052D000BD465DF8047B704780B584B000AF786050
:1052E0007B689B6BFB60FB680022DA85FB68002211
:1052F000DA84F868FFF7DAFE00BF1037BD4680BDDC
:1053000080B584B000AF78607B689B6BFB60FB6806
:105310000022DA85FB68202283F84220FB68002205
:105320001A63F868FFF7CCFE00BF1037BD4680BD9A
:1053300080B485B000AF78607B6893F84130DBB211
:10534000212B3ED17B689B68B3F5805F14D17B68CD
:105350001B69002B10D17B681B6AFB60FB681B88F4
:105360001A467B681B68C2F308025A607B681B6A96
:105370009A1C7B681A6208E07B681B6A591C7A6871
:1053800011621A787B681B685A607B68DB8C9BB261
:10539000013B9BB27A681946D184002B0FD17B6800
:1053A0001B68DA687B681B6822F08002DA607B6821
:1053B0001B68DA687B681B6842F04002DA600023F1
:1053C00000E0022318461437BD465DF8047B7047A1
:1053D00080B582B000AF78607B681B68DA687B6854
:1053E0001B6822F04002DA607B68202283F84120AB
:1053F0007868FFF747FE002318460837BD4680BD92
:1054000080B58CB000AF78607B6893F84230DBB237
:10541000222B40F0AE807B689B68B3F5805F17D18C
:105420007B681B69002B13D10023FB627B689B6A9E
:10543000BB627B681B685B689BB2C3F308039AB2CC
:10544000BB6A1A807B689B6A9A1C7B689A6226E01A
:105450007B689B6AFB620023BB627B689B68B3F539
:10546000805F07D07B689B68002B0AD17B681B6933
:10547000002B06D17B681B685B68DAB2FB6A1A7086
:1054800008E07B681B685B68DBB203F07F03DAB27D
:10549000FB6A1A707B689B6A5A1C7B689A627B68FD
:1054A000DB8D9BB2013B9BB27A681946D185002BFC
:1054B0005DD17B681B68DA687B681B6822F020027C
:1054C000DA607B681B68DA687B681B6822F480728C
:1054D000DA607B681B685A697B681B6822F00102EE
:1054E0005A617B68202283F842207B6800225A633D
:1054F0007B681B6B012B35D17B6800221A637B68AC
:105500001B680C337B617B6953E8003F3B613B695F
:1055100023F010037B627B681B680C337A6A3A6263
:10552000FB61F9693A6A41E80023BB61BB69002B62
:10553000E5D17B681B681B6803F01003102B0AD1B0
:105540000023FB607B681B681B68FB607B681B6833
:105550005B68FB60FB687B689B8D19467868FFF78A
:10556000B9FD02E07868FFF797FD002302E0002311
:1055700000E0022318463037BD4680BD2DE9B04F0C
:10558000C0B000AFC7F8F400D7F8F4301B681B694F
:1055900023F44050D7F8F430D968D7F8F4301A68BB
:1055A00040EA01031361D7F8F4309A68D7F8F43071
:1055B0001B691A43D7F8F4305B691A43D7F8F43003
:1055C000DB691343C7F8F830D7F8F4301B68DB68A1
:1055D00023F4164121F00C01D7F8F4301A68D7F8FB
:1055E000F8300B43D360D7F8F4301B685B6923F4C1
:1055F0004070D7F8F4309969D7F8F4301A6840EA67
:1056000001035361D7F8F4301A688F4B9A4205D0E2
:10561000D7F8F4301A688D4B9A4204D1FEF73EFE5B
:10562000C7F8FC0003E0FEF725FEC7F8FC00D7F83A
:10563000F430DB69B3F5004F40F00C81D7F8FC3053
:105640000022C7F8E830C7F8EC20D7E93A452246EF
:105650002B469118B9655B41FB65D7E916232146B6
:1056600012EB0108294643EB01094FF000024FF00D
:1056700000034FEAC90343EA58734FEAC802904651
:105680009946234618EB0303C7F8E0302B4649EB55
:105690000303C7F8E430D7F8F4305B680022C7F89A
:1056A000D830C7F8DC20D7E936120B46DB183B654B
:1056B000134642EB03037B65D7E91423D7E938018E
:1056C000FBF77AFA02460B46614BA3FB02235B0908
:1056D0001C01D7F8FC300022C7F8D030C7F8D4201E
:1056E000D7E9348942464B469118B9645B41FB6463
:1056F000D7E91223414612EB010A494643EB010B5D
:105700004FF000024FF000034FEACB0343EA5A7315
:105710004FEACA0292469B4643461AEB0303C7F878
:10572000C8304B464BEB0303C7F8CC30D7F8F43006
:105730005B680022C7F8C030C7F8C420D7E9301230
:105740000B46DB183B64134642EB03037B64D7E94B
:105750001023D7E93201FBF72FFA02460B46114618
:105760003B4BA3FB01235B09642202FB03F3CB1A2F
:10577000DB0003F13202364BA3FB02235B095B0023
:1057800003F4F8731C44D7F8FC300022C7F8B83093
:10579000C7F8BC20D7E92E8942464B469118B96319
:1057A0005B41FB63D7E90E234146511839634946F3
:1057B0004B417B634FF000024FF00003D7E90CAB85
:1057C0005946CB00514643EA51735146CA00104630
:1057D0001946034642469B18C7F8B0304B460A4666
:1057E00042EB0303C7F8B430D7F8F4305B6800220B
:1057F000C7F8A830C7F8AC20D7E92A120B46DB1847
:10580000BB62134642EB0303FB62D7E90A23D7E9E5
:105810002C01FBF7D1F902460B460D4BA3FB0213FB
:105820005B09642101FB03F3D31ADB003233084A1E
:10583000A2FB03235B0903F00702D7F8F4301B68CF
:1058400022449A6006E100BF0010014000140140AC
:105850001F85EB51D7F8FC300022C7F8A030C7F8FD
:10586000A420D7E9288942464B46911839625B410A
:105870007B62D7E9082341465418494643EB0105AA
:105880004FF000024FF00003EB0043EA5473E200D4
:1058900014461D464346E318C7F898304B4645EB7F
:1058A0000303C7F89C30D7F8F4305B680022C7F8D0
:1058B0009030C7F894204FF000024FF00003D7E972
:1058C000244529468B00214643EA917321468A00EC
:1058D000D7E92601FBF770F902460B46604BA3FBA4
:1058E00002235B091C01D7F8FC300022C7F888307E
:1058F000C7F88C20D7E9228942464B469118B961F6
:105900005B41FB61D7E9062341465118396149469D
:105910004B417B614FF000024FF00003D7E904AB2D
:105920005946CB00514643EA51735146CA001046CE
:105930001946034642469B18C7F880304B460A4634
:1059400042EB0303C7F88430D7F8F4305B680022D9
:10595000BB67FA674FF000024FF00003D7E91E89DA
:1059600049468B00414643EA917341468A00D7E994
:105970002001FBF721F902460B461146384BA3FBE9
:1059800001235B09642202FB03F3CB1A1B013233B0
:10599000334AA2FB03235B0903F0F0031C44D7F84E
:1059A000FC3000223B677A67D7E91C8942464B46A8
:1059B0009118B9605B41FB60D7E902234146511859
:1059C000396049464B417B604FF000024FF00003C5
:1059D000D7E900AB5946CB00514643EA51735146D3
:1059E000CA0010461946034642469B18BB664B4602
:1059F0000A4642EB0303FB66D7F8F4305B680022EB
:105A00003B667A664FF000024FF00003D7E9188931
:105A100049468B00414643EA917341468A00D7E9E3
:105A20001A01FBF7C9F802460B460D4BA3FB021304
:105A30005B09642101FB03F3D31A1B013233084ACB
:105A4000A2FB03235B0903F00F02D7F8F4301B68B5
:105A500022449A6000BF07F58077BD46BDE8B08F4D
:105A60001F85EB5180B500AF054B1B6801F044FC6E
:105A70000346012B01D002F03FFA00BF80BD00BFFA
:105A800010E000E080B485B000AFF860B9607A60E3
:105A9000FB68074A1A60BB68064A1A607B68802266
:105AA0001A6000BF1437BD465DF8047B704700BF25
:105AB000F80D0020A00E002080B485B000AFF86083
:105AC000B9607A60FB68074A1A60BB68064A1A60C8
:105AD0007B684FF480721A6000BF1437BD465DF8D2
